:020000040800F2
:1000000080060020810500088103000883030008A2
:10001000870300088B0300088F030008000000001E
:100020000000000000000000000000009303000832
:1000300095030008000000009703000899030008DA
:100040009B0500089B0500089B0500089B05000810
:100050009B0500089B0500089B0500089B05000800
:100060009B0500089B0500089B0500089B050008F0
:100070009B0500089B0500089B0500089B050008E0
:100080009B0500089B0500089B0500089B050008D0
:100090009B0500089B0500089B0500089B050008C0
:1000A0009B0500089B0500089B0500089B050008B0
:1000B0009B0500089B0500089B0500089B050008A0
:1000C0009B0500089B0500089B0500089B05000890
:1000D0009B0500089B0500089B0500089B05000880
:1000E0009B0500089B0500089B05000800F002F82E
:1000F00000F03AF80AA090E8000C82448344AAF188
:100100000107DA4501D100F02FF8AFF2090EBAE885
:100110000F0013F0010F18BFFB1A43F0010318473B
:100120001405000034050000103A24BF78C878C1D7
:10013000FAD8520724BF30C830C144BF04680C60ED
:10014000704700000023002400250026103A28BF35
:1001500078C1FBD8520728BF30C148BF0B60704739
:100160001FB51FBD10B510BD00F02DFA1146FFF7E9
:10017000F7FF00F009F800F04BFA03B4FFF7F2FFC5
:1001800003BC00F04FFA00004FF47064002500F04B
:10019000B5F82248806940F00900204988610020B4
:1001A0001F4908601F48406820F0E0601D49486012
:1001B0000846406840F0007048604FF0223018490F
:1001C0000C390860091D0860322000F086F8002014
:1001D0001349086000BF11E04FF6FF701049091D78
:1001E0000860142000F079F84FF6FF700C490831D0
:1001F0000860142000F071F8681CC5B20A2DEBDB12
:100200000748046008E0052000F067F8600040EA55
:10021000E43084B202480460F5E7000000100240B8
:100220000C0C01400000014030B54FF0E0200069A7
:1002300020F001004FF0E02108614A480068C00842
:100240006422B0FBF2F1481EB0F1807F01D301209F
:100250001BE0481E4FF0E022506150170F2200288B
:1002600007DA13071D0E404B00F00F04241F1D5525
:1002700003E013071C0E3D4B1C5400BF00204FF041
:10028000E022906107201061002008B100BFFEE766
:100290004FF0E020006920F004004FF0E0210861F9
:1002A0000846006920F00100086130BD3049098826
:1002B00041434FF0E0225161002191610121116120
:1002C00000BF4FF0E021096901F480310029F8D026
:1002D00000214FF0E0221161704700B5034603EBA7
:1002E00083014FF6FF7202EA4100FFF7DFFF00BD16
:1002F00020480068401E1F49086070474FF0E0200A
:10030000006920F004004FF0E02108611548006802
:10031000C0081949B0FBF1F0184908700846007888
:1003200000EB4001C1EBC0104FF6FF7101EAC000C5
:100330000F49088070471149097841434FF0E02286
:100340005161002191610121116100BF4FF0E02155
:10035000096901F480310029F8D000214FF0E02232
:10036000116170470800002018ED00E000E400E093
:10037000060000200000002040420F000400002082
:10038000704700BFFEE700BFFEE700BFFEE700BF0B
:10039000FEE770477047704710B5FFF7A9FF10BD23
:1003A0000CB50020019000906C48006840F480304B
:1003B0006A49086000BF6948006800F40030009096
:1003C0000198401C0190009818B90198B0F5A06FF1
:1003D000F1D16248006800F4003010B101200090B3
:1003E00001E0002000900098012843D15C4800689B
:1003F00040F010005A4908600846006820F00300E9
:1004000008600846006840F00200086053484068F1
:10041000524948600846406848600846406840F4D1
:10042000806048600846406820F47C1048600846B8
:10043000406840F4E81048600846006840F080706A
:10044000086000BF4548006800F000700028F9D03F
:100450004248406820F00300404948600846406830
:1004600040F00200486000BF3C48406800F00C00CB
:100470000828F9D10CBD10B5FFF792FF10BD10B5DB
:100480003648006840F0010034490860084640687A
:1004900034490840314948600846006832490840FC
:1004A0002E4908600846006820F48020086008464D
:1004B000406820F4FE0048604FF41F008860FFF79A
:1004C000DAFF4FF000602949086010BD10B5002127
:1004D00000200022214B5B6803F00C0121B10429AC
:1004E00006D0082928D107E0214B224C236027E0C1
:1004F0001F4B204C236023E0184B5B6803F4701003
:10050000164B5B6803F48032022303EB904022B960
:10051000194B4343174C23600DE0104B5B6803F409
:10052000003323B1144B4343124C236003E0104BC0
:100530004343104C236003E00D4B0E4C236000BF7F
:1005400000BF064B5B68C3F303130C4CE15C094B23
:100550001B68CB40074C236010BD00000010024018
:10056000002002400000FFF8FFFFF6FE08ED00E06B
:1005700000127A000800002000093D000C00002055
:100580000948804709480047FEE7FEE7FEE7FEE727
:10059000FEE7FEE7FEE7FEE7FEE7FEE70448054963
:1005A000054A064B704700007F040008ED00000874
:1005B00080000020800600208002002080020020B1
:1005C000704770477047754600F028F8AE46050042
:1005D0006946534620F00700854618B020B5FFF75E
:1005E000DDFFBDE820404FF000064FF000074FF060
:1005F00000084FF0000B21F00701AC46ACE8C00941
:10060000ACE8C009ACE8C009ACE8C0098D46704749
:100610000446AFF300802046FFF7AFFD0048704767
:100620001C00002001491820ABBEFEE72600020096
:100630007047000054060008000000201C00000065
:1006400028010008700600081C0000206406000055
:1006500044010008000000000000000000A24A045D
:100660000000000000000000010203040607080962
:04000005080000ED02
:00000001FF
