:020000042000DA
:1000000080360020E5040020ED040020EF040020ED
:10001000F1040020F3040020F5040020000000009B
:10002000000000000000000000000000F7040020B5
:10003000F904002000000000FB040020FD04002063
:10004000FF040020FF040020FF040020FF04002024
:10005000FF040020FF040020FF040020FF04002014
:10006000FF040020FF040020FF040020FF04002004
:10007000FF040020FF040020FF040020FF040020F4
:10008000FF040020FF040020FF040020FF040020E4
:10009000FF040020FF040020FF040020FF040020D4
:1000A000FF040020FF040020FF040020FF040020C4
:1000B000FF040020FF040020FF040020FF040020B4
:1000C000FF040020FF040020FF040020FF040020A4
:1000D000FF040020FF040020FF040020FF04002094
:1000E000FF040020FF040020FF04002000F002F8BD
:1000F00000F03AF80AA090E8000C82448344AAF188
:100100000107DA4501D100F02FF8AFF2090EBAE885
:100110000F0013F0010F18BFFB1A43F0010318473B
:100120007804000098040000103A24BF78C878C111
:10013000FAD8520724BF30C830C144BF04680C60ED
:10014000704700000023002400250026103A28BF35
:1001500078C1FBD8520728BF30C148BF0B60704739
:100160001FB51FBD10B510BD00F0DFF91146FFF738
:10017000F7FF00F0B4F800F0FDF903B4FFF7F2FF69
:1001800003BC00F001FA00004FF0E020006920F00D
:1001900004004FF0E021086126480068C0082649A5
:1001A000B0FBF1F0254908700846007800EB4001EB
:1001B000C1EBC0104FF6FF7101EAC0002049088072
:1001C00070471F49098841434FF0E02251610021E7
:1001D00091610121116100BF4FF0E021096901F433
:1001E00080310029F8D000214FF0E02211617047E2
:1001F00000B5034603EB83014FF6FF7202EA4100AC
:10020000FFF7DFFF00BD0D49097841434FF0E022C1
:100210005161002191610121116100BF4FF0E02186
:10022000096901F480310029F8D000214FF0E02263
:10023000116170470830002040420F00003000205C
:10024000023000202B48806940F00900294988616C
:100250000020294908602948406820F0E0602749CB
:1002600048600846406840F0007048604FF0223017
:1002700021490C390860091D0860704710B5002439
:100280003220FFF7B5FF00201B49086000BF11E0D6
:100290004FF6FF701849091D08601420FFF7A8FFEA
:1002A0004FF6FF701449083108601420FFF7A0FFD3
:1002B000601CC4B20A2CEBDB10BD10B50520FFF7A3
:1002C00097FF0F48008840000D49098840EAE13057
:1002D0000B490880084600880749086010BD00BF28
:1002E000FFF752FFFFF7AEFFFFF7C8FF01E0FFF790
:1002F000E4FFFCE7001002400C0C0140000001404C
:10030000043000200CB50020019000906C4800687B
:1003100040F480306A49086000BF6948006800F412
:10032000003000900198401C0190009818B9019885
:10033000B0F5A06FF1D16248006800F4003010B150
:100340000120009001E0002000900098012843D196
:100350005C48006840F010005A4908600846006890
:1003600020F0030008600846006840F002000860C2
:10037000534840685249486008464068486008460B
:10038000406840F4806048600846406820F47C1073
:1003900048600846406840F4E81048600846006835
:1003A00040F08070086000BF4548006800F00070B1
:1003B0000028F9D04248406820F0030040494860D6
:1003C0000846406840F00200486000BF3C48406872
:1003D00000F00C000828F9D10CBD10B5FFF792FF12
:1003E00010BD10B53648006840F00100344908607F
:1003F000084640683449084031494860084600686A
:10040000324908402E4908600846006820F48020E0
:1004100008600846406820F4FE0048604FF41F0062
:100420008860FFF7DAFF4FF000502949086010BDDF
:1004300010B5002100200022214B5B6803F00C0165
:1004400021B1042906D0082928D107E0214B224CEC
:10045000236027E01F4B204C236023E0184B5B6890
:1004600003F47010164B5B6803F48032022303EB35
:10047000904022B9194B4343174C23600DE0104BB9
:100480005B6803F4003323B1144B4343124C2360E5
:1004900003E0104B4343104C236003E00D4B0E4C24
:1004A000236000BF00BF064B5B68C3F303130C4C13
:1004B000E15C094B1B68CB40074C236010BD00007A
:1004C00000100240002002400000FFF8FFFFF6FE8F
:1004D00008ED00E000127A000830002000093D001D
:1004E0000C3000200948804709480047FEE7FEE736
:1004F000FEE7FEE7FEE7FEE7FEE7FEE7FEE7FEE7D4
:1005000004480549054A064B70470000E3030020F4
:10051000ED00002080300020803600208032002056
:1005200080320020704770477047754600F028F809
:10053000AE4605006946534620F00700854618B0D0
:1005400020B5FFF7DDFFBDE820404FF000064FF07B
:1005500000074FF000084FF0000B21F00701AC46F8
:10056000ACE8C009ACE8C009ACE8C009ACE8C00917
:100570008D4670470446AFF300802046FFF7FDFD2F
:10058000004870471C30002001491820ABBEFEE730
:100590002600020070470000B8050020003000204F
:1005A0001C00000028010020D40500201C30002081
:1005B000640600004401002000000000000F00005D
:1005C00000A24A0400000000000000000102030431
:0405D0000607080909
:04000005200000EDEA
:00000001FF
