:020000040800F2
:1000000078060020C5040008CD040008CF040008CD
:10001000D1040008D3040008D50400080000000043
:10002000000000000000000000000000D7040008ED
:10003000D904000800000000DB040008DD0400080B
:10004000DF040008DF040008DF040008DF04000804
:10005000DF040008DF040008DF040008DF040008F4
:10006000DF040008DF040008DF040008DF040008E4
:10007000DF040008DF040008DF040008DF040008D4
:10008000DF040008DF040008DF040008DF040008C4
:10009000DF040008DF040008DF040008DF040008B4
:1000A000DF040008DF040008DF040008DF040008A4
:1000B000DF040008DF040008DF040008DF04000894
:1000C000DF040008DF040008DF040008DF04000884
:1000D000DF040008DF040008DF040008DF04000874
:1000E000DF040008DF040008DF04000800F002F865
:1000F00000F03AF80AA090E8000C82448344AAF188
:100100000107DA4501D100F02FF8AFF2090EBAE885
:100110000F0013F0010F18BFFB1A43F0010318473B
:100120005804000078040000103A24BF78C878C151
:10013000FAD8520724BF30C830C144BF04680C60ED
:10014000704700000023002400250026103A28BF35
:1001500078C1FBD8520728BF30C148BF0B60704739
:100160001FB51FBD10B510BD00F0CFF91146FFF748
:10017000F7FF00F067F800F0EDF903B4FFF7F2FFC6
:1001800003BC00F0F1F900004FF0E020006920F01E
:1001900004004FF0E021086126480068C0082649A5
:1001A000B0FBF1F0254908700846007800EB4001EB
:1001B000C1EBC0104FF6FF7101EAC0002049088072
:1001C00070471F49098841434FF0E02251610021E7
:1001D00091610121116100BF4FF0E021096901F433
:1001E00080310029F8D000214FF0E02211617047E2
:1001F00000B5034603EB83014FF6FF7202EA4100AC
:10020000FFF7DFFF00BD0D49097841434FF0E022C1
:100210005161002191610121116100BF4FF0E02186
:10022000096901F480310029F8D000214FF0E02263
:10023000116170470400002040420F0000000020C0
:10024000020000204FF470640025FFF79DFF224854
:10025000806940F009002049886100201F4908603A
:100260001F48406820F0E0601D494860084640682B
:1002700040F0007048604FF0223018490C39086097
:10028000091D08603220FFF7B3FF00201349086002
:1002900000BF11E04FF6FF701049091D08601420DF
:1002A000FFF7A6FF4FF6FF700C49083108601420D5
:1002B000FFF79EFF681CC5B20A2DEBDB0748046000
:1002C00008E00520FFF794FF600040EAE43084B2C4
:1002D00002480460F5E70000001002400C0C0140E9
:1002E000000001400CB50020019000906C480068AF
:1002F00040F480306A49086000BF6948006800F433
:10030000003000900198401C0190009818B90198A5
:10031000B0F5A06FF1D16248006800F4003010B170
:100320000120009001E0002000900098012843D1B6
:100330005C48006840F010005A49086008460068B0
:1003400020F0030008600846006840F002000860E2
:10035000534840685249486008464068486008462B
:10036000406840F4806048600846406820F47C1093
:1003700048600846406840F4E81048600846006855
:1003800040F08070086000BF4548006800F00070D1
:100390000028F9D04248406820F0030040494860F6
:1003A0000846406840F00200486000BF3C48406892
:1003B00000F00C000828F9D10CBD10B5FFF792FF32
:1003C00010BD10B53648006840F00100344908609F
:1003D000084640683449084031494860084600688A
:1003E000324908402E4908600846006820F4802001
:1003F00008600846406820F4FE0048604FF41F0083
:100400008860FFF7DAFF4FF000602949086010BDEF
:1004100010B5002100200022214B5B6803F00C0185
:1004200021B1042906D0082928D107E0214B224C0C
:10043000236027E01F4B204C236023E0184B5B68B0
:1004400003F47010164B5B6803F48032022303EB55
:10045000904022B9194B4343174C23600DE0104BD9
:100460005B6803F4003323B1144B4343124C236005
:1004700003E0104B4343104C236003E00D4B0E4C44
:10048000236000BF00BF064B5B68C3F303130C4C33
:10049000E15C094B1B68CB40074C236010BD00009A
:1004A00000100240002002400000FFF8FFFFF6FEAF
:1004B00008ED00E000127A000400002000093D0071
:1004C000080000200948804709480047FEE7FEE78A
:1004D000FEE7FEE7FEE7FEE7FEE7FEE7FEE7FEE7F4
:1004E00004480549054A064B70470000C30300084D
:1004F000ED00000878000020780600207802002037
:1005000078020020704770477047754600F028F861
:10051000AE4605006946534620F00700854618B0F0
:1005200020B5FFF7DDFFBDE820404FF000064FF09B
:1005300000074FF000084FF0000B21F00701AC4618
:10054000ACE8C009ACE8C009ACE8C009ACE8C00937
:100550008D4670470446AFF300802046FFF70DFE3E
:10056000004870471800002001491820ABBEFEE784
:1005700026000200704700009805000800000020D7
:100580001800000028010008B0050008180000202D
:1005900060060000440100080000000000A24A04B8
:1005A0000000000000000000010203040607080923
:04000005080000ED02
:00000001FF
