:020000042000DA
:1000000078360020690300203505002037050020E0
:100010003B0500203F0500204305002000000000B4
:100020000000000000000000000000004705002064
:1000300049050020000000004B0500204D05002070
:100040008303002083030020830300208303002018
:100050008303002083030020830300208303002008
:1000600083030020830300208303002083030020F8
:1000700083030020830300208303002083030020E8
:1000800083030020830300208303002083030020D8
:1000900083030020830300208303002083030020C8
:1000A00083030020830300208303002083030020B8
:1000B00083030020830300208303002083030020A8
:1000C0008303002083030020830300208303002098
:1000D0008303002083030020830300208303002088
:1000E00083030020830300208303002000F002F834
:1000F00000F03AF80AA090E8000C82448344AAF188
:100100000107DA4501D100F02FF8AFF2090EBAE885
:100110000F0013F0010F18BFFB1A43F0010318473B
:10012000A8040000C8040000103A24BF78C878C1B1
:10013000FAD8520724BF30C830C144BF04680C60ED
:10014000704700000023002400250026103A28BF35
:1001500078C1FBD8520728BF30C148BF0B60704739
:100160001FB51FBD10B510BD00F0F7F91146FFF720
:10017000F7FF00F02CF900F015FA03B4FFF7F2FFD7
:1001800003BC00F019FA00000CB5002001900090AB
:100190006C48006840F480306A49086000BF6948D4
:1001A000006800F4003000900198401C0190009815
:1001B00018B90198B0F5A06FF1D16248006800F459
:1001C000003010B10120009001E000200090009864
:1001D000012843D15C48006840F010005A4908608B
:1001E0000846006820F0030008600846006840F0F8
:1001F0000200086053484068524948600846406819
:1002000048600846406840F480604860084640689E
:1002100020F47C1048600846406840F4E8104860CC
:100220000846006840F08070086000BF45480068DC
:1002300000F000700028F9D04248406820F0030028
:10024000404948600846406840F00200486000BFEE
:100250003C48406800F00C000828F9D10CBD10B5EE
:10026000FFF792FF10BD10B53648006840F001005E
:1002700034490860084640683449084031494860BC
:1002800008460068324908402E4908600846006860
:1002900020F4802008600846406820F4FE00486092
:1002A0004FF41F008860FFF7DAFF4FF00060294924
:1002B000086010BD10B5002100200022214B5B68B2
:1002C00003F00C0121B1042906D0082928D107E048
:1002D000214B224C236027E01F4B204C236023E05E
:1002E000184B5B6803F47010164B5B6803F48032A4
:1002F000022303EB904022B9194B4343174C236070
:100300000DE0104B5B6803F4003323B1144B4343FF
:10031000124C236003E0104B4343104C236003E076
:100320000D4B0E4C236000BF00BF064B5B68C3F350
:1003300003130C4CE15C094B1B68CB40074C23605A
:1003400010BD000000100240002002400000FFF835
:10035000FFFFF6FE08ED00E000127A0000300020FA
:1003600000093D0004300020094880470948004743
:10037000FEE7FEE7FEE7FEE7FEE7FEE7FEE7FEE755
:10038000FEE7FEE704480549054A064B70470000B2
:1003900067020020ED000020783000207836002031
:1003A000783200207832002010B500210CE00022C5
:1003B00006E0002300E05B1CB3F57A7FFBD3521C00
:1003C000B2F5C86FF5D3491C8142F0D310BDFF24AC
:1003D000002500F045F81F48406820F0E0601D4906
:1003E00048600846406840F0007048604FF0223096
:1003F00019490860091D0860002017490C31086080
:100400001648806940F009001449886100BF10E077
:100410004FF6FF7010490C310860322000F062F88E
:1004200000200D490C310860642000F05BF8681C66
:10043000C5B2052DECDB08480C30046009E0322021
:1004400000F050F8600040EA244084B202480C30CA
:100450000460F4E700000140000C0140001002407D
:1004600030B54FF0E020006920F001004FF0E021AE
:1004700008612C480068C0086422B0FBF2F1481EF5
:10048000B0F1807F01D301201BE0481E4FF0E02235
:10049000506150170F22002807DA13071D0E224B58
:1004A00000F00F04241F1D5503E013071C0E1F4B03
:1004B0001C5400BF00204FF0E02290610720106123
:1004C000002008B100BFFEE74FF0E020006920F0F7
:1004D00004004FF0E02108610846006920F00100A7
:1004E000086130BD124908604FF0E021096941F010
:1004F00001014FF0E022116100BF0D490968002998
:10050000FBD14FF0E021096921F001014FF0E02219
:10051000116100219161704705480068401E04493F
:10052000086070470030002018ED00E000E400E0B3
:1005300014300020704700BFFEE700BFFEE700BF99
:10054000FEE700BFFEE770477047704710B5FFF742
:10055000E3FF10BD704770477047754600F028F8FC
:10056000AE4605006946534620F00700854618B0A0
:1005700020B5FFF707FFBDE820404FF000064FF021
:1005800000074FF000084FF0000B21F00701AC46C8
:10059000ACE8C009ACE8C009ACE8C009ACE8C009E7
:1005A0008D4670470446AFF300802046FFF7E5FD17
:1005B000004870471830002001491820ABBEFEE704
:1005C0002600020070470000E805002000300020EF
:1005D000180000002801002000060020183000202C
:1005E000600600004401002000A24A040000000050
:1005F00000000000010203040607080900000000D3
:04000005200000EDEA
:00000001FF
