:020000042000DA
:100000002034002031050020390500203B05002068
:100010003D0500203F0500204105002000000000B4
:100020000000000000000000000000004305002068
:10003000450500200000000047050020490500207C
:100040004B0500204B0500204B0500204B050020F0
:100050004B0500204B0500204B0500204B050020E0
:100060004B0500204B0500204B0500204B050020D0
:100070004B0500204B0500204B0500204B050020C0
:100080004B0500204B0500204B0500204B050020B0
:100090004B0500204B0500204B0500204B050020A0
:1000A0004B0500204B0500204B0500204B05002090
:1000B0004B0500204B0500204B0500204B05002080
:1000C0004B0500204B0500204B0500204B05002070
:1000D0004B0500204B0500204B0500204B05002060
:1000E0004B0500204B0500204B050020DFF80CD00D
:1000F00000F030FA00480047C902002020340020F8
:100100004FF0E020006920F004004FF0E02108618A
:1001100026480068C0082649B0FBF1F02549087060
:100120000846007800EB4001C1EBC0104FF6FF71AC
:1001300001EAC0002049088070471F4909884143EF
:100140004FF0E0225161002191610121116100BF56
:100150004FF0E021096901F480310029F8D0002135
:100160004FF0E0221161704700B5034603EB8301B5
:100170004FF6FF7202EA4100FFF7DFFF00BD0D49B5
:10018000097841434FF0E022516100219161012142
:10019000116100BF4FF0E021096901F480310029AD
:1001A000F8D000214FF0E0221161704708300020A4
:1001B00040420F0000300020023000205C4880697F
:1001C00040F009005A49886100205A4908605A489D
:1001D000406820F0E060584948600846406840F0B8
:1001E000007048604FF0223052490C390860091DF8
:1001F0000860704710B500243220FFF7B5FF0020DB
:100200004C49086000BF11E04FF6FF704949091DD5
:1002100008601420FFF7A8FF4FF6FF70454908312A
:1002200008601420FFF7A0FF601CC4B20A2CEBDBAF
:1002300010BD10B50520FFF797FF4048008840002B
:100240003E49098840EAE1303C4908800846008878
:100250003849086010BD3648806944F201010843FE
:10026000334988613448406820F0040032494860CE
:100270003348006820F47F60314908600846006810
:1002800040F0A00008600846006840F40060086084
:1002900000202C490880091D0880091D08804FF4A2
:1002A000505028490880081D008820F44050091D3E
:1002B0000880081F008840F00C00091F088041F6E4
:1002C0004C50091F088070476124FFF719FFFFF7A2
:1002D00075FFFFF7C0FF0CE000BF1A480C3800881C
:1002E00000F040000028F8D0164808380480601C50
:1002F000C4B27A2CF0DDFFF77DFF13A000F03CF9CB
:1003000014E0FFF796FF1420FFF72EFF00BF0D4803
:100310000C38008800F040000028F8D00948083860
:100320000480601CC4B27A2C00DD6124E9E700007F
:10033000001002400C0C014000000140043000207D
:10034000040801400C3801400A20746573742100D0
:100350000CB50020019000906C48006840F480309B
:100360006A49086000BF6948006800F400300090E6
:100370000198401C0190009818B90198B0F5A06F41
:10038000F1D16248006800F4003010B10120009003
:1003900001E0002000900098012843D15C480068EB
:1003A00040F010005A4908600846006820F0030039
:1003B00008600846006840F0020008605348406842
:1003C000524948600846406848600846406840F422
:1003D000806048600846406820F47C104860084609
:1003E000406840F4E81048600846006840F08070BB
:1003F000086000BF4548006800F000700028F9D090
:100400004248406820F00300404948600846406880
:1004100040F00200486000BF3C48406800F00C001B
:100420000828F9D10CBD10B5FFF792FF10BD10B52B
:100430003648006840F001003449086008464068CA
:10044000344908403149486008460068324908404C
:100450002E4908600846006820F48020086008469D
:10046000406820F4FE0048604FF41F008860FFF7EA
:10047000DAFF4FF000502949086010BD10B5002187
:1004800000200022214B5B6803F00C0121B10429FC
:1004900006D0082928D107E0214B224C236027E011
:1004A0001F4B204C236023E0184B5B6803F4701053
:1004B000164B5B6803F48032022303EB904022B9B1
:1004C000194B4343174C23600DE0104B5B6803F45A
:1004D000003323B1144B4343124C236003E0104B11
:1004E0004343104C236003E00D4B0E4C236000BFD0
:1004F00000BF064B5B68C3F303130C4CE15C094B74
:100500001B68CB40074C236010BD00000010024068
:10051000002002400000FFF8FFFFF6FE08ED00E0BB
:1005200000127A000830002000093D000C30002045
:100530000648804706480047FEE7FEE7FEE7FEE77D
:10054000FEE7FEE7FEE7FEE7FEE7FEE72F040020FA
:10055000ED000020064C074D06E0E06840F0010386
:1005600094E8070098471034AC42F6D3FFF7C2FD79
:10057000DC050020FC050020014A024900F013B808
:10058000C90500201C30002002E008C8121F08C165
:10059000002AFAD170477047002001E001C1121F04
:1005A000002AFBD170472DE9F04116460F4604465C
:1005B000002503E03946B047641C6D1C20780028F4
:1005C000F8D12846BDE8F08138B504468DF8000022
:1005D00069460320ABBE204638BD0000FC05002064
:1005E0000030002020000000880500201C060020AC
:1005F00020300020000400009805002000000000CA
:10060000000F000000A24A040000000000000000EB
:0C061000010203040607080900000000B6
:04000005200000EDEA
:00000001FF
