:020000040800F2
:1000000068080020E9090008E9070008EB07000874
:10001000EF070008F3070008F707000800000000DA
:10002000000000000000000000000000FB070008C6
:10003000FD07000800000000FF0700080108000895
:10004000030A0008030A0008030A0008030A00085C
:10005000030A0008030A0008030A0008030A00084C
:10006000030A0008030A0008030A0008030A00083C
:10007000030A0008030A0008030A0008030A00082C
:10008000030A0008030A0008030A0008030A00081C
:10009000030A0008030A0008030A0008030A00080C
:1000A000030A0008030A0008030A0008030A0008FC
:1000B000030A0008030A0008030A0008030A0008EC
:1000C000030A0008030A0008030A0008030A0008DC
:1000D000030A0008030A0008030A0008030A0008CC
:1000E000030A0008030A0008030A000800F002F8E7
:1000F00000F03AF80AA090E8000C82448344AAF188
:100100000107DA4501D100F02FF8AFF2090EBAE885
:100110000F0013F0010F18BFFB1A43F0010318473B
:100120007C0900009C090000103A24BF78C878C1FF
:10013000FAD8520724BF30C830C144BF04680C60ED
:10014000704700000023002400250026103A28BF35
:1001500078C1FBD8520728BF30C148BF0B60704739
:100160001FB51FBD10B510BD00F061FC1146FFF7B3
:10017000F7FF00F084FA00F07FFC03B4FFF7F2FF12
:1001800003BC00F083FC0000F648806920F0080002
:10019000F44988614FF04430F3490860091D086054
:1001A0000120F2490870704710B504464FF6FF7001
:1001B000ED490C3108608815ED4908608000086041
:1001C000012000F0E9FAE8480C300460012000F05A
:1001D000E3FA4FF00070E64908600014086010BDB3
:1001E00010B504464FF6FF70DF490C3108604FF040
:1001F0008070DF49086080130860012000F0CCFAAD
:10020000D9480C300460012000F0C6FA4FF00070AD
:10021000D7490860001408604010086010BD70B530
:1002200005460C464FF00060D14908602846FFF7AC
:10023000D7FF2046FFF7B8FF4FF40060CC490860B5
:1002400070BD4FF00061CA4A1160C7490C310860A7
:100250005105116009141160704770B504464FF0E4
:100260008070C3490860C00008602046FFF7E9FFBE
:100270004FF08830BC490860091D08604FF6FF70D8
:10028000B9490C3108604FF08060B949086001201D
:1002900000F082FA4FF48060B5490860B248083037
:1002A000006885B2C81408604FF03330AE4908606A
:1002B000091D08604FF6FF70AB490C3108602846F5
:1002C00070BDA848806940F00C00A64988614FF0D5
:1002D0003330A5490860091D0860A5480C3800683E
:1002E0006FF31300A2490C39086008460068A14961
:1002F00008439F490C3908604FF6FF709A490C314A
:100300000860C8149A490860C0100860400008607E
:100310004000086080000860704710B5FFF7D1FF0B
:10032000142000F039FA01210020FFF778FF142093
:1003300000F032FA0020FFF790FF8F49088000207C
:100340008A4908704FF40041E520FFF768FF01215A
:100350000020FFF764FF4FF480710120FFF75FFF7B
:100360004FF4E0610220FFF75AFF41F23001032011
:10037000FFF755FF00210420FFF751FF40F2022153
:100380000820FFF74CFF00210920FFF748FF00215C
:100390000A20FFF744FF00210C20FFF740FF002157
:1003A0000D20FFF73CFF00210F20FFF738FF002151
:1003B0001020FFF734FF00211120FFF730FF00214C
:1003C0001220FFF72CFF00211320FFF728FF142035
:1003D00000F0E2F941F2B0711020FFF720FF40F287
:1003E00037111120FFF71BFF142000F0D5F940F260
:1003F00039111220FFF713FF142000F0CDF94FF44C
:10040000E8511320FFF70BFF13212920FFF707FF07
:10041000142000F0C1F900212020FFF700FF002187
:100420002120FFF7FCFE06213020FFF7F8FE40F206
:1004300001113120FFF7F3FE03213220FFF7EFFE19
:100440004FF483713520FFF7EAFE40F60231362083
:10045000FFF7E5FE40F202313720FFF7E0FE40F201
:1004600007713820FFF7DBFE07213920FFF7D7FEA1
:100470004FF4C0613C20FFF7D2FE40F20B213D203B
:10048000FFF7CDFE00215020FFF7C9FEEF215120DC
:10049000FFF7C5FE00215220FFF7C1FE40F23F11D9
:1004A0005320FFF7BCFE4FF41C516020FFF7B7FE4E
:1004B00001216120FFF7B3FE00216A20FFF7AFFEA4
:1004C00000218020FFF7ABFE00218120FFF7A7FE6F
:1004D00000218220FFF7A3FE00218320FFF79FFE6B
:1004E00000218420FFF79BFE00218520FFF797FE67
:1004F00010219020FFF793FE00219220FFF78FFE3E
:1005000003219320FFF78BFE4FF488719520FFF7AE
:1005100086FE00219720FFF782FE00219820FFF73A
:100520007EFE41F218010320FFF779FE40F27311BD
:100530000720FFF774FE10BD70B504460D4629462E
:100540002020FFF76CFE21462120FFF768FE70BDDA
:1005500005490C3108604FF00071054A116009141B
:100560001160704700100240000C014000000020A4
:100570001008014022220200020000204FF4807087
:100580002C4908608000086022202B4908604FF049
:100590000070284908600014086040100860704727
:1005A00070B5054600210846FFF7C6FF4FF0006012
:1005B00020490860FFF7E2FF002403E02846FFF728
:1005C000C7FF641CB4F5963FF8D34FF40060194997
:1005D000086070BD7047704710B5002400201649B0
:1005E00008608815134908604000086040040860EE
:1005F000012000F0D1F81048001F006884B20120EB
:1006000000F0CAF84FF480600A490860204610BD27
:1006100008B54FF480600749086000040860064888
:10062000001F006880B20090BDF8000008BD704750
:1006300070477047100801400C0C014010B50021B4
:100640000CE0002206E0002300E05B1CB3F57A7F9B
:10065000FBD3521CB2F5C86FF5D3491C8142F0D3CD
:1006600010BD10B5002407E02046FFF7F6FD254930
:1006700021F81400601CC4B2F22CF5DD10BDFF247B
:10068000002500F047F82048406820F0E0601E494F
:1006900048600846406840F0007048604FF02230E3
:1006A0001A490860091D0860002018490C310860CB
:1006B0001748806940F009001549886100BF10E0C3
:1006C0004FF6FF7011490C310860322000F064F8D9
:1006D00000200E490C310860642000F05DF8681CB1
:1006E000C5B2052DECDB09480C30046009E032206E
:1006F00000F052F8600040EA244084B203480C3015
:100700000460F4E71C00002000000140000C0140E0
:100710000010024030B54FF0E020006920F00100E9
:100720004FF0E02108612C480068C0086422B0FB4B
:10073000F2F1481EB0F1807F01D301201BE0481E7A
:100740004FF0E022506150170F22002807DA1307FC
:100750001D0E224B00F00F04241F1D5503E013074C
:100760001C0E1F4B1C5400BF00204FF0E022906174
:1007700007201061002008B100BFFEE74FF0E02025
:10078000006920F004004FF0E0210861084600698C
:1007900020F00100086130BD124908604FF0E021EF
:1007A000096941F001014FF0E022116100BF0D49DC
:1007B00009680029FBD14FF0E021096921F001010E
:1007C0004FF0E022116100219161704705480068F7
:1007D000401E0449086070470800002018ED00E042
:1007E00000E400E004000020704700BFFEE700BF07
:1007F000FEE700BFFEE700BFFEE7704770477047A7
:1008000010B5FFF7E3FF10BD0CB50020019000907C
:100810006C48006840F480306A49086000BF69484D
:10082000006800F4003000900198401C019000988E
:1008300018B90198B0F5A06FF1D16248006800F4D2
:10084000003010B10120009001E0002000900098DD
:10085000012843D15C48006840F010005A49086004
:100860000846006820F0030008600846006840F071
:100870000200086053484068524948600846406892
:1008800048600846406840F4806048600846406818
:1008900020F47C1048600846406840F4E810486046
:1008A0000846006840F08070086000BF4548006856
:1008B00000F000700028F9D04248406820F00300A2
:1008C000404948600846406840F00200486000BF68
:1008D0003C48406800F00C000828F9D10CBD10B568
:1008E000FFF792FF10BD10B53648006840F00100D8
:1008F0003449086008464068344908403149486036
:1009000008460068324908402E49086008460068D9
:1009100020F4802008600846406820F4FE0048600B
:100920004FF41F008860FFF7DAFF4FF0006029499D
:10093000086010BD10B5002100200022214B5B682B
:1009400003F00C0121B1042906D0082928D107E0C1
:10095000214B224C236027E01F4B204C236023E0D7
:10096000184B5B6803F47010164B5B6803F480321D
:10097000022303EB904022B9194B4343174C2360E9
:100980000DE0104B5B6803F4003323B1144B434379
:10099000124C236003E0104B4343104C236003E0F0
:1009A0000D4B0E4C236000BF00BF064B5B68C3F3CA
:1009B00003130C4CE15C094B1B68CB40074C2360D4
:1009C00010BD000000100240002002400000FFF8AF
:1009D000FFFFF6FE08ED00E000127A00080000209C
:1009E00000093D000C0000200948804709480047E5
:1009F000FEE7FEE7FEE7FEE7FEE7FEE7FEE7FEE7CF
:100A0000FEE7FEE704480549054A064B704700002B
:100A1000E7080008ED0000086802002068080020D0
:100A200068040020680400207047704770477546CE
:100A300000F028F8AE4605006946534620F007004E
:100A4000854618B020B5FFF7DDFFBDE820404FF028
:100A500000064FF000074FF000084FF0000B21F0A8
:100A60000701AC46ACE8C009ACE8C009ACE8C00975
:100A7000ACE8C0098D4670470446AFF300802046BD
:100A8000FFF77BFB00487047040200200149182053
:100A9000ABBEFEE72600020070470000BC0A00085B
:100AA000000000201C00000028010008D80A0008EF
:100AB0001C0000204C080000440100080100000058
:100AC0000000000000A24A04000000000000000036
:080AD0000102030406070809F6
:04000005080000ED02
:00000001FF
