:020000040800F2
:1000000020040020B1040008B9040008BB04000863
:10001000BD040008BF040008C1040008000000007F
:10002000000000000000000000000000C304000801
:10003000C504000800000000C7040008C904000847
:10004000CB040008CB040008CB040008CB04000854
:10005000CB040008CB040008CB040008CB04000844
:10006000CB040008CB040008CB040008CB04000834
:10007000CB040008CB040008CB040008CB04000824
:10008000CB040008CB040008CB040008CB04000814
:10009000CB040008CB040008CB040008CB04000804
:1000A000CB040008CB040008CB040008CB040008F4
:1000B000CB040008CB040008CB040008CB040008E4
:1000C000CB040008CB040008CB040008CB040008D4
:1000D000CB040008CB040008CB040008CB040008C4
:1000E000CB040008CB040008CB040008DFF80CD0D8
:1000F00000F0FEFA00480047290200082004002012
:100100005B48806940F00D00594988615948406852
:1001100020F0E060574948600846406840F00070B1
:1001200048604FF0223054490860091D0860534868
:100130000068534908405149086008460068514921
:1001400008434E4908604FF6FF704B490C31086078
:1001500001204A49103108602020086040200860D2
:10016000802008600220086070474FF02232424B26
:100170001A601B1D1A604FF48032404B10331A6016
:1001800052011A6080221A603B4A0C3210604FF410
:1001900080021A6040221A6020221A60364A0C320D
:1001A00011604FF480021A6040221A6001221A6026
:1001B000704701464FF022322F4B1A601B1D1A6008
:1001C0004FF480322D4B10331A6052011A60802296
:1001D0001A60294A0C3211604FF480021A604022E2
:1001E0001A6020221A604FF08832234B1A601B1DC0
:1001F0001A608022214B10331A6012041A601E4AC2
:100200000832126890B201221A60704710B50121BD
:100210000020FFF7AAFF012000F090F90020FFF76F
:10022000C8FF0446204610BD08B500240F200090EA
:1002300000F050F900F0B9F9322000F07FF912A077
:1002400000F088FA322000F079F9FFF759FF0DE04D
:10025000FFF7DCFF0090601C84B2BDF8002021464F
:1002600017A000F077FA642000F068F9F0E70000CA
:100270000010024000000140000C01400008014055
:1002800000FF0F00220020222A2A2A2A2A2A2A2AAC
:100290002A2A2A2A2A2A2A2A2A2A2A2A0A73657212
:1002A00069616C2074657374200A2A2A2A2A2A2A12
:1002B0002A2A2A2A2A2A2A2A2A2A2A2A2A2A0A00E8
:1002C0004E3A252D346420202523780A00000000B2
:1002D0000CB50020019000906C48006840F480301C
:1002E0006A49086000BF6948006800F40030009067
:1002F0000198401C0190009818B90198B0F5A06FC2
:10030000F1D16248006800F4003010B10120009083
:1003100001E0002000900098012843D15C4800686B
:1003200040F010005A4908600846006820F00300B9
:1003300008600846006840F00200086053484068C2
:10034000524948600846406848600846406840F4A2
:10035000806048600846406820F47C104860084689
:10036000406840F4E81048600846006840F080703B
:10037000086000BF4548006800F000700028F9D010
:100380004248406820F00300404948600846406801
:1003900040F00200486000BF3C48406800F00C009C
:1003A0000828F9D10CBD10B5FFF792FF10BD10B5AC
:1003B0003648006840F0010034490860084640684B
:1003C00034490840314948600846006832490840CD
:1003D0002E4908600846006820F48020086008461E
:1003E000406820F4FE0048604FF41F008860FFF76B
:1003F000DAFF4FF000602949086010BD10B50021F8
:1004000000200022214B5B6803F00C0121B104297C
:1004100006D0082928D107E0214B224C236027E091
:100420001F4B204C236023E0184B5B6803F47010D3
:10043000164B5B6803F48032022303EB904022B931
:10044000194B4343174C23600DE0104B5B6803F4DA
:10045000003323B1144B4343124C236003E0104B91
:100460004343104C236003E00D4B0E4C236000BF50
:1004700000BF064B5B68C3F303130C4CE15C094BF4
:100480001B68CB40074C236010BD000000100240E9
:10049000002002400000FFF8FFFFF6FE08ED00E03C
:1004A00000127A000000002000093D000400002036
:1004B0000648804706480047FEE7FEE7FEE7FEE7FE
:1004C000FEE7FEE7FEE7FEE7FEE7FEE7AF03000814
:1004D000ED0000084FF0E020006920F004004FF02C
:1004E000E021086126480068C0082649B0FBF1F009
:1004F000254908700846007800EB4001C1EBC010A8
:100500004FF6FF7101EAC0002049088070471F497B
:10051000098841434FF0E02251610021916101219E
:10052000116100BF4FF0E021096901F48031002919
:10053000F8D000214FF0E0221161704700B503466A
:1005400003EB83014FF6FF7202EA4100FFF7DFFF82
:1005500000BD0D49097841434FF0E022516100216F
:1005600091610121116100BF4FF0E021096901F49F
:1005700080310029F8D000214FF0E022116170474E
:100580000000002040420F00140000201600002050
:1005900000BF394A128802F08002002AF9D0C0F365
:1005A0000802354B1B1D1A80704710B53349896905
:1005B00044F205021143314A91613149496821F001
:1005C00004012F4A51602F49096821F47F612D4AA7
:1005D00011601146096841F0A001116011460968D7
:1005E00041F4006111602849096801EBC10202EB86
:1005F00001114FF41642B1FBF2F16422B1FBF2F2A9
:100600002149096801EBC10303EB01114FF41643C3
:10061000B1FBF3F11C4B1B6803EBC30404EB0313A6
:100620004FF41644B3FBF4F36424B3FBF4F303EB8D
:10063000C30404EB0313A1EB8301322303EB011189
:100640006423B1FBF3F162F31F110B4A08321180EE
:100650000021121D1180121D1180121D1180002019
:1006600001E000BF401CB0F5805FFADB42F20C01F4
:10067000014A0C32118010BD0038014000100240C8
:100680000000014004080140000000202DE9F05F57
:100690000546002092469B468846064681464024F1
:1006A0001BE0284641464746224600F042F85346A2
:1006B0005A46C01A914110D311461846224600F0FE
:1006C00029F82D1A67EB01084F4622460120002128
:1006D00000F020F817EB00094E41201EA4F10104A0
:1006E000DFDC484631462A464346BDE8F09F00001D
:1006F000064C074D06E0E06840F0010394E807006F
:1007000098471034AC42F6D3FFF7F4FCF00B000826
:10071000100C0008202A04DB203A00FA02F1002025
:1007200070479140C2F1200320FA03F3194390402F
:100730007047202A04DB203A21FA02F0002170479A
:1007400021FA02F3D040C2F1200291400843194639
:10075000704700000FB4054B10B503A9044A029876
:1007600000F018F810BC5DF814FB000091050008BB
:100770001800002002E008C8121F08C1002AFAD1A0
:1007800070477047002001E001C1121F002AFBD111
:10079000704700002DE9FF4F8DB00F46054600263B
:1007A00006E025280BD0DDE90F1290476D1C761C62
:1007B00028780028F5D111B03046BDE8F08F00242C
:1007C000A246A1460122EA4900E0044315F8013F90
:1007D000203B02FA03F00842F7D128782A2810D0EB
:1007E0006FF02F022878A0F13001092914D80AEB04
:1007F0008A0102EB410144F0020400EB010A6D1C86
:10080000F0E701CF5FEA000A03D544F40054CAF1CF
:10081000000A44F002046D1C28782E2817D115F820
:10082000010F44F004042A280ED06FF02F0228781C
:10083000A0F1300109290AD809EB890102EB410135
:1008400000EB01096D1CF2E757F8049B6D1C28783A
:100850006C280FD006DC4C2817D068280DD06A28E9
:1008600014D104E0742810D07A280FD10DE044F49C
:1008700000140AE044F4801401E044F44014697860
:10088000814202D104F580146D1C6D1C2A786E2AF9
:100890001FD00CDC632A31D004DC002A8BD0582A0C
:1008A00011D19FE0642A68D0692A0CD165E0732ACF
:1008B0002ED004DC6F2A73D0702A04D197E0752AF9
:1008C0006FD0782A6ED01046DDE90F129047761C63
:1008D0004CE1C4F30250022806D0032809D00428B2
:1008E00001CF09D0066041E101CFF117C0E90061F5
:1008F0003CE101CF068039E1067037E117F8040BBF
:100900008DF8000000208DF80100EB46012003E087
:1009100057F804BB4FF0FF3061074FF0000102D4DD
:100920000DE008F10101884649450FDA8045F8DB02
:100930001BF808100029F4D108E008F101018846ED
:100940008142FADB1BF808100029F6D1DDE90F23FC
:10095000AAEB08008146214600F032F9304400EB52
:10096000080604E0DDE90F121BF8010B9047B8F10F
:100970000108F7D221464846F3E00A21C4F30253A6
:100980004FF0000B0891022B04D001CFC117032BAD
:1009900009D00AE0FF1D27F00707F7E8020108E089
:1009A0002EE01DE01EE000B2C117042B01D140B2C1
:1009B000C117002907DA4FF0000CD0EB0C006CEBEC
:1009C00001012D2302E0230504D52B238DF82430CB
:1009D000012303E0E30701D02023F7E7984656E020
:1009E0000A210EE010204FF0000B08900CE01021BF
:1009F0004FF0000B44F004044FF00809089103E0A5
:100A000008214FF0000B0891C4F30253022B04D0CD
:100A100001CF0021032B06D006E0FF1D27F00707BA
:100A2000F7E8020103E080B2042B00D1C0B24FF01E
:100A3000000823072BD5702A07D0DDF820C08CF0E2
:100A4000100C5CEA0B0C05D00EE040238DF824302E
:100A5000012308E050EA010306D030238DF824304A
:100A60008DF8252002239846DDF820C08CF0080C74
:100A70005CEA0B0C0BD150EA010301D1630706D5E8
:100A800030238DF824304FF00108A9F10109582ACC
:100A900004D038A20B9208AA0A920BE03AA2F9E716
:100AA0005B46089AFFF7F2FD0B9B9B5C0A9A521E6D
:100AB0000A92137050EA0102F2D10A98ADEB0000DD
:100AC00000F1200B600702D524F4803401E04FF0E0
:100AD0000109D94502DDA9EB0B0000E0002000EB85
:100AE0000B0141440890AAEB010AE00306D4DDE9BA
:100AF0000F232146504600F063F806444FF00009EA
:100B000008E009A911F80900DDE90F12904709F181
:100B10000109761CC145F4DBE0030CD5DDE90F23A8
:100B20002146504600F04CF8064404E0DDE90F127F
:100B300030209047761C0899481E08900029F5DC63
:100B400008E00A980A990078491C0A91DDE90F1219
:100B50009047761CBBF10001ABF1010BF1DC2146A3
:100B60005046DDE90F2300F019F806446D1C1FE61E
:100B70000928010030313233343536373839616273
:100B80006364656600000000303132333435363737
:100B90003839414243444546000000002DE9F04108
:100BA000044600251E461746880404D405E039464D
:100BB0002020B0476D1C641EF9D52846BDE8F081A1
:100BC0002DE9F041044600251E469046C80301D594
:100BD000302700E02027880404D505E04146384648
:100BE000B0476D1C641EF9D52846BDE8F0810000B1
:100BF000100C0008000000201C0000007407000812
:100C00002C0C00081C0000200404000084070008CD
:100C100000A24A04000000000000000001020304DA
:0C0C2000060708090000000000000000AA
:04000005080000ED02
:00000001FF
