:020000040800F2
:1000000020040020290400083104000833040008FB
:100010003504000837040008390400080000000017
:100020000000000000000000000000003B04000889
:100030003D040008000000003F04000841040008DF
:100040004304000843040008430400084304000874
:100050004304000843040008430400084304000864
:100060004304000843040008430400084304000854
:100070004304000843040008430400084304000844
:100080004304000843040008430400084304000834
:100090004304000843040008430400084304000824
:1000A0004304000843040008430400084304000814
:1000B0004304000843040008430400084304000804
:1000C00043040008430400084304000843040008F4
:1000D00043040008430400084304000843040008E4
:1000E000430400084304000843040008DFF80CD070
:1000F00000F088FA004800479B0100082004002017
:100100003E48806940F009003C49886100203C4934
:1001100008603C48406820F0E0603A494860084682
:10012000406840F0007048604FF0223034490C398C
:100130000860091D0860704710B50024322000F0E7
:1001400037FA00202E49086000BF11E04FF6FF701B
:100150002B49091D0860142000F02AFA4FF6FF70A1
:10016000274908310860142000F022FA601CC4B24C
:100170000A2CEBDB10BD10B5052000F019FA22485F
:10018000008840002049098840EAE1301E49088083
:10019000084600881A49086010BD612400F0D4F9AF
:1001A000FFF7AEFF00F05FF90BE000BF17480088D3
:1001B00000F080000028F9D01448001D0480601C65
:1001C000C4B27A2CF1DDFFF7B7FF11A000F02CFAD2
:1001D00011A000F029FA61240EE0FFF7CCFF1420F3
:1001E00000F0E6F900BF0948008800F08000002810
:1001F000F9D00648001D0480EFE70000001002401F
:100200000C0C0140000001400000002000380140BB
:100210000A74657374210A0055534152543120E425
:10022000BDBFE883BD2C20E4BDBFE883BDE8BE931D
:10023000E587BAEFBC8CE4BDBFE883BDE8BE93E5BB
:1002400085A55C6E000000000CB5002001900090B8
:100250006C48006840F480306A49086000BF694813
:10026000006800F4003000900198401C0190009854
:1002700018B90198B0F5A06FF1D16248006800F498
:10028000003010B10120009001E0002000900098A3
:10029000012843D15C48006840F010005A490860CA
:1002A0000846006820F0030008600846006840F037
:1002B0000200086053484068524948600846406858
:1002C00048600846406840F48060486008464068DE
:1002D00020F47C1048600846406840F4E81048600C
:1002E0000846006840F08070086000BF454800681C
:1002F00000F000700028F9D04248406820F0030068
:10030000404948600846406840F00200486000BF2D
:100310003C48406800F00C000828F9D10CBD10B52D
:10032000FFF792FF10BD10B53648006840F001009D
:1003300034490860084640683449084031494860FB
:1003400008460068324908402E490860084600689F
:1003500020F4802008600846406820F4FE004860D1
:100360004FF41F008860FFF7DAFF4FF00060294963
:10037000086010BD10B5002100200022214B5B68F1
:1003800003F00C0121B1042906D0082928D107E087
:10039000214B224C236027E01F4B204C236023E09D
:1003A000184B5B6803F47010164B5B6803F48032E3
:1003B000022303EB904022B9194B4343174C2360AF
:1003C0000DE0104B5B6803F4003323B1144B43433F
:1003D000124C236003E0104B4343104C236003E0B6
:1003E0000D4B0E4C236000BF00BF064B5B68C3F390
:1003F00003130C4CE15C094B1B68CB40074C23609A
:1004000010BD000000100240002002400000FFF874
:10041000FFFFF6FE08ED00E000127A000400002065
:1004200000093D00080000200648804706480047B4
:10043000FEE7FEE7FEE7FEE7FEE7FEE7FEE7FEE794
:10044000FEE7FEE727030008ED00000800BF394A79
:10045000128802F08002002AF9D0C0F30802354B5E
:100460001B1D1A80704710B53349896944F2050293
:100470001143314A91613149496821F004012F4A01
:1004800051602F49096821F47F612D4A116011469E
:10049000096841F0A00111601146096841F400614A
:1004A00011602849096801EBC10202EB01114FF408
:1004B0001642B1FBF2F16422B1FBF2F22149096864
:1004C00001EBC10303EB01114FF41643B1FBF3F150
:1004D0001C4B1B6803EBC30404EB03134FF41644DB
:1004E000B3FBF4F36424B3FBF4F303EBC30404EBB6
:1004F0000313A1EB8301322303EB01116423B1FB4E
:10050000F3F162F31F110B4A083211800021121D12
:100510001180121D1180121D1180002001E000BF0A
:10052000401CB0F5805FFADB42F20C01014A0C324C
:10053000118010BD00380140001002400000014051
:1005400004080140040000204FF0E020006920F082
:1005500004004FF0E021086126480068C0082649E1
:10056000B0FBF1F0254908700846007800EB400127
:10057000C1EBC0104FF6FF7101EAC00020490880AE
:1005800070471F49098841434FF0E0225161002123
:1005900091610121116100BF4FF0E021096901F46F
:1005A00080310029F8D000214FF0E022116170471E
:1005B00000B5034603EB83014FF6FF7202EA4100E8
:1005C000FFF7DFFF00BD0D49097841434FF0E022FE
:1005D0005161002191610121116100BF4FF0E021C3
:1005E000096901F480310029F8D000214FF0E022A0
:1005F000116170470400002040420F0018000020E5
:100600001A000020064C074D06E0E06840F00103A8
:1006100094E8070098471034AC42F6D3FFF76AFD20
:100620007806000898060008014A024900F013B84D
:100630004D0400081C00002002E008C8121F08C179
:10064000002AFAD170477047002001E001C1121F53
:10065000002AFBD170472DE9F04116460F460446AB
:10066000002503E03946B047641C6D1C2078002843
:10067000F8D12846BDE8F081980600080000002067
:100680002000000038060008B806000820000020FE
:100690000004000048060008000F000000A24A0401
:1006A0000000000000000000010203040607080922
:0806B000000000000000000042
:04000005080000ED02
:00000001FF
