:020000040800F2
:1000000020040020850300088D0300088F030008EA
:100010009103000893030008950300080000000006
:10002000000000000000000000000000970300082E
:1000300099030008000000009B0300089D030008CE
:100040009F0300089F0300089F0300089F03000808
:100050009F0300089F0300089F0300089F030008F8
:100060009F0300089F0300089F0300089F030008E8
:100070009F0300089F0300089F0300089F030008D8
:100080009F0300089F0300089F0300089F030008C8
:100090009F0300089F0300089F0300089F030008B8
:1000A0009F0300089F0300089F0300089F030008A8
:1000B0009F0300089F0300089F0300089F03000898
:1000C0009F0300089F0300089F0300089F03000888
:1000D0009F0300089F0300089F0300089F03000878
:1000E0009F0300089F0300089F030008DFF80CD05F
:1000F00000F036FA00480047010100082004002003
:10010000612400F051F900F0BAF90BE000BF154886
:10011000008800F080000028F9D01248001D0480FB
:10012000601CC4B27A2CF1DD0FA000F02BFA10A0F5
:1001300000F028FA612414E0142000F069F900BFEF
:100140000848008800F080000028F9D00548001D0C
:100150000480601CC4B27A2C03DD612410A000F07E
:1001600011FAE9E7003801400A74657374210A0046
:1001700055534152543120E4BDBFE883BD2C20E4E7
:10018000BDBFE883BDE8BE93E587BAEFBC8CE4BD94
:10019000BFE883BDE8BE93E585A55C6E0000000066
:1001A0000A0000000CB50020019000906C48006827
:1001B00040F480306A49086000BF6948006800F474
:1001C000003000900198401C0190009818B90198E7
:1001D000B0F5A06FF1D16248006800F4003010B1B2
:1001E0000120009001E0002000900098012843D1F8
:1001F0005C48006840F010005A49086008460068F2
:1002000020F0030008600846006840F00200086023
:10021000534840685249486008464068486008466C
:10022000406840F4806048600846406820F47C10D4
:1002300048600846406840F4E81048600846006896
:1002400040F08070086000BF4548006800F0007012
:100250000028F9D04248406820F003004049486037
:100260000846406840F00200486000BF3C484068D3
:1002700000F00C000828F9D10CBD10B5FFF792FF73
:1002800010BD10B53648006840F0010034490860E0
:1002900008464068344908403149486008460068CB
:1002A000324908402E4908600846006820F4802042
:1002B00008600846406820F4FE0048604FF41F00C4
:1002C0008860FFF7DAFF4FF000602949086010BD31
:1002D00010B5002100200022214B5B6803F00C01C7
:1002E00021B1042906D0082928D107E0214B224C4E
:1002F000236027E01F4B204C236023E0184B5B68F2
:1003000003F47010164B5B6803F48032022303EB96
:10031000904022B9194B4343174C23600DE0104B1A
:100320005B6803F4003323B1144B4343124C236046
:1003300003E0104B4343104C236003E00D4B0E4C85
:10034000236000BF00BF064B5B68C3F303130C4C74
:10035000E15C094B1B68CB40074C236010BD0000DB
:1003600000100240002002400000FFF8FFFFF6FEF0
:1003700008ED00E000127A000000002000093D00B6
:10038000040000200648804706480047FEE7FEE7D5
:10039000FEE7FEE7FEE7FEE7FEE7FEE7FEE7FEE735
:1003A00083020008ED0000084FF0E020006920F013
:1003B00004004FF0E021086126480068C008264983
:1003C000B0FBF1F0254908700846007800EB4001C9
:1003D000C1EBC0104FF6FF7101EAC0002049088050
:1003E00070471F49098841434FF0E02251610021C5
:1003F00091610121116100BF4FF0E021096901F411
:1004000080310029F8D000214FF0E02211617047BF
:1004100000B5034603EB83014FF6FF7202EA410089
:10042000FFF7DFFF00BD0D49097841434FF0E0229F
:100430005161002191610121116100BF4FF0E02164
:10044000096901F480310029F8D000214FF0E02241
:10045000116170470000002040420F00140000208E
:100460001600002000BF394A128802F08002002ADC
:10047000F9D0C0F30802354B1B1D1A80704710B528
:100480003349896944F205021143314A9161314986
:10049000496821F004012F4A51602F49096821F46D
:1004A0007F612D4A11601146096841F0A001116079
:1004B0001146096841F4006111602849096801EB9F
:1004C000C10202EB01114FF41642B1FBF2F16422BA
:1004D000B1FBF2F22149096801EBC10303EB011101
:1004E0004FF41643B1FBF3F11C4B1B6803EBC30441
:1004F00004EB03134FF41644B3FBF4F36424B3FB8F
:10050000F4F303EBC30404EB0313A1EB83013223E5
:1005100003EB01116423B1FBF3F162F31F110B4AEA
:10052000083211800021121D1180121D1180121D30
:100530001180002001E000BF401CB0F5805FFADBB5
:1005400042F20C01014A0C32118010BD003801400A
:10055000001002400000014004080140000000209B
:10056000064C074D06E0E06840F0010394E8070000
:1005700098471034AC42F6D3FFF7BCFDD405000811
:10058000F4050008014A024900F013B865040008A8
:100590001800002002E008C8121F08C1002AFAD182
:1005A00070477047002001E001C1121F002AFBD1F3
:1005B00070472DE9F04116460F460446002503E03A
:1005C0003946B047641C6D1C20780028F8D12846B5
:1005D000BDE8F081F4050008000000201C000000C8
:1005E00094050008100600081C0000200404000008
:1005F000A405000800A24A0400000000000000005A
:1006000001020304060708090000000000000000C2
:04000005080000ED02
:00000001FF
