:020000040800F2
:1000000020040020C1040008C9040008CB04000833
:10001000CD040008CF040008D1040008000000004F
:10002000000000000000000000000000D3040008F1
:10003000D504000800000000D7040008D904000817
:10004000DB040008DB040008DB040008DB04000814
:10005000DB040008DB040008DB040008DB04000804
:10006000DB040008DB040008DB040008DB040008F4
:10007000DB040008DB040008DB040008DB040008E4
:10008000DB040008DB040008DB040008DB040008D4
:10009000DB040008DB040008DB040008DB040008C4
:1000A000DB040008DB040008DB040008DB040008B4
:1000B000DB040008DB040008DB040008DB040008A4
:1000C000DB040008DB040008DB040008DB04000894
:1000D000DB040008DB040008DB040008DB04000884
:1000E000DB040008DB040008DB040008DFF80CD0A8
:1000F00000F006FB004800475502000820040020DD
:1001000010B56C48806940F00D006A4988616A4802
:10011000406820F0E060684948600846406840F068
:10012000007048604FF0223064490860091D086083
:10013000634800686FF3130061490860084600686F
:10014000604908435E4908604FF6FF705B490C3117
:100150000860C8145A490C310860C010086040009B
:1001600008604000086080000860142000F0EEF98C
:1001700010BD70B505460C464FF0006050490C317B
:100180000860C010086080130860012000F0E9F9E1
:100190004A480C300560012000F0E3F94FF0007090
:1001A00047490C310860001408604010086008607E
:1001B00080000860012000F0D4F940480C30046051
:1001C000012000F0CEF94FF000703D490C3108607D
:1001D000001408608000086070BD01464FF00062A6
:1001E000374B0C331A60D2141A6092001A60334AEB
:1001F0000C3211605A051A6012141A6052101A60FB
:100200004FF088322D4B1A601B1D1A601A152C4BAB
:100210000C331A6012041A60284A0832126890B22D
:10022000DA141A604FF02232244B1A601B1D1A6038
:10023000704710B5142000F089F901210020FFF764
:1002400098FF142000F082F90020FFF7C6FF044653
:10025000204610BD08B540F20120009000F042F9A0
:1002600000F0ABF900240FE000BF1748008800F051
:1002700080000028F9D061201349091D08800A2058
:1002800000F064F9601C84B2142CEDDB642000F0F3
:100290005DF90EA000F066FA642000F057F907E05F
:1002A000BDF800100DA000F05DFA642000F04EF9DA
:1002B000F6E700000010024000000140000C014081
:1002C0000408014022220200003801400A20736520
:1002D0007269616C2074657374200A0025780A00C5
:1002E0000CB50020019000906C48006840F480300C
:1002F0006A49086000BF6948006800F40030009057
:100300000198401C0190009818B90198B0F5A06FB1
:10031000F1D16248006800F4003010B10120009073
:1003200001E0002000900098012843D15C4800685B
:1003300040F010005A4908600846006820F00300A9
:1003400008600846006840F00200086053484068B2
:10035000524948600846406848600846406840F492
:10036000806048600846406820F47C104860084679
:10037000406840F4E81048600846006840F080702B
:10038000086000BF4548006800F000700028F9D000
:100390004248406820F003004049486008464068F1
:1003A00040F00200486000BF3C48406800F00C008C
:1003B0000828F9D10CBD10B5FFF792FF10BD10B59C
:1003C0003648006840F0010034490860084640683B
:1003D00034490840314948600846006832490840BD
:1003E0002E4908600846006820F48020086008460E
:1003F000406820F4FE0048604FF41F008860FFF75B
:10040000DAFF4FF000602949086010BD10B50021E7
:1004100000200022214B5B6803F00C0121B104296C
:1004200006D0082928D107E0214B224C236027E081
:100430001F4B204C236023E0184B5B6803F47010C3
:10044000164B5B6803F48032022303EB904022B921
:10045000194B4343174C23600DE0104B5B6803F4CA
:10046000003323B1144B4343124C236003E0104B81
:100470004343104C236003E00D4B0E4C236000BF40
:1004800000BF064B5B68C3F303130C4CE15C094BE4
:100490001B68CB40074C236010BD000000100240D9
:1004A000002002400000FFF8FFFFF6FE08ED00E02C
:1004B00000127A000000002000093D000400002026
:1004C0000648804706480047FEE7FEE7FEE7FEE7EE
:1004D000FEE7FEE7FEE7FEE7FEE7FEE7BF030008F4
:1004E000ED0000084FF0E020006920F004004FF01C
:1004F000E021086126480068C0082649B0FBF1F0F9
:10050000254908700846007800EB4001C1EBC01097
:100510004FF6FF7101EAC0002049088070471F496B
:10052000098841434FF0E02251610021916101218E
:10053000116100BF4FF0E021096901F48031002909
:10054000F8D000214FF0E0221161704700B503465A
:1005500003EB83014FF6FF7202EA4100FFF7DFFF72
:1005600000BD0D49097841434FF0E022516100215F
:1005700091610121116100BF4FF0E021096901F48F
:1005800080310029F8D000214FF0E022116170473E
:100590000000002040420F00140000201600002040
:1005A00000BF394A128802F08002002AF9D0C0F355
:1005B0000802354B1B1D1A80704710B533498969F5
:1005C00044F205021143314A91613149496821F0F1
:1005D00004012F4A51602F49096821F47F612D4A97
:1005E00011601146096841F0200111601146096847
:1005F00041F4006111602849096801EBC10202EB76
:1006000001114FF41642B1FBF2F16422B1FBF2F298
:100610002149096801EBC10303EB01114FF41643B3
:10062000B1FBF3F11C4B1B6803EBC30404EB031396
:100630004FF41644B3FBF4F36424B3FBF4F303EB7D
:10064000C30404EB0313A1EB8301322303EB011179
:100650006423B1FBF3F162F31F110B4A08321180DE
:100660000021121D1180121D1180121D1180002009
:1006700001E000BF401CB0F5805FFADB42F20C01E4
:10068000014A0C32118010BD0038014000100240B8
:100690000000014004080140000000202DE9F05F47
:1006A0000546002092469B468846064681464024E1
:1006B0001BE0284641464746224600F042F8534692
:1006C0005A46C01A914110D311461846224600F0EE
:1006D00029F82D1A67EB01084F4622460120002118
:1006E00000F020F817EB00094E41201EA4F1010490
:1006F000DFDC484631462A464346BDE8F09F00000D
:10070000064C074D06E0E06840F0010394E807005E
:1007100098471034AC42F6D3FFF7ECFC600A0008AF
:10072000800A0008202A04DB203A00FA02F10020A7
:1007300070479140C2F1200320FA03F3194390401F
:100740007047202A04DB203A21FA02F0002170478A
:1007500021FA02F3D040C2F1200291400843194629
:10076000704700000FB4054B10B503A9044A029866
:1007700000F018F810BC5DF814FB0000A10500089B
:100780001800002002E008C8121F08C1002AFAD190
:1007900070477047002001E001C1121F002AFBD101
:1007A000704700002DE9FF4F8DB09B460F46044671
:1007B000002606E025280BD05A460F999047641C66
:1007C000761C20780028F5D111B03046BDE8F08FB6
:1007D0000025A8460122974900E0054314F8013F8F
:1007E000203B02FA03F00842F7D120782E2817D1D7
:1007F00014F8010F45F004052A280ED06FF02F02DF
:100800002078A0F1300109290AD808EB880102EB11
:10081000410100EB0108641CF2E757F8048B641CEB
:1008200020786C280DD004DC4C2812D06A2811D115
:1008300004E074280DD07A280CD10AE045F40015A4
:1008400007E0617845F48015814202D1641C05F50A
:100850008015641C2278692A45D008DC002AB3D0B0
:10086000582A67D0632A10D0642A08D13BE0702A46
:1008700065D0732A13D0752A5AD0782A5AD01046D8
:100880005A460F999047761CD1E017F8040B8DF863
:10089000000000208DF80100E946012003E057F830
:1008A000049B4FF0FF3069074FF0000501D40AE0C8
:1008B0006D1C45450DDA8542FADB19F80510002953
:1008C000F6D106E06D1C8542FCDB19F80510002905
:1008D000F8D12E4404E019F8010B5A460F999047BD
:1008E0006D1EF8D2A3E00A200021CDE90801C5F36E
:1008F000025002280BD001CFC11700290DDA4FF0AA
:10090000000CD0EB0C006CEB01012D2308E0FF1D67
:1009100027F00707F7E80201EFE72B0504D52B23A3
:100920008DF8283001233BE0EB0739D02023F7E78F
:100930000A2000E010200021CDE9080107E0102086
:10094000002145F00405CDE908014FF00808C5F382
:10095000025002280FD001CF00214FF0000A2B07D0
:100960001FD5702A0DD0DDE908C38CF0100C5CEAAD
:10097000030C0CD015E0FF1D27F00707F7E8020174
:10098000EBE740228DF828204FF0010A0BE050EAF7
:10099000010306D030238DF828308DF8292002235A
:1009A0009A46582A04D024A20DF120090B9209E09E
:1009B00026A2F9E7DDE90823FFF770FE0B9B9B5C9D
:1009C00009F8013D50EA0102F4D1ADEB09002030F5
:1009D0000890680701D44FF001080899884502DDA6
:1009E000A8EB010000E000208046002506E00AA8F0
:1009F0005A46405D0F9990476D1C761C5545F6DBB5
:100A000004E030205A460F999047761CB8F1000157
:100A1000A8F10108F5DC05E019F8010B5A460F9919
:100A20009047761C0899481E08900029F4DC641C45
:100A3000C7E600000928010030313233343536373B
:100A4000383961626364656600000000303132331A
:100A500034353637383941424344454600000000BA
:100A6000800A0008000000201C0000008407000825
:100A70009C0A00081C0000200404000094070008E1
:100A800000A24A040000000000000000010203046C
:0C0A90000607080900000000000000003C
:04000005080000ED02
:00000001FF
