:020000040800F2
:100000000804002001010008090100080B01000894
:100010000D0100080F010008110100080000000098
:1000200000000000000000000000000013010008B4
:100030001501000800000000170100081901000860
:100040001B0100081B0100081B0100081B01000820
:100050001B0100081B0100081B0100081B01000810
:100060001B0100081B0100081B0100081B01000800
:100070001B0100081B0100081B0100081B010008F0
:100080001B0100081B0100081B0100081B010008E0
:100090001B0100081B0100081B0100081B010008D0
:1000A0001B0100081B0100081B0100081B010008C0
:1000B0001B0100081B0100081B0100081B010008B0
:1000C0001B0100081B0100081B0100081B010008A0
:1000D0001B0100081B0100081B0100081B01000890
:1000E0001B0100081B0100081B010008DFF80CD0F1
:1000F00000F018F8004800477504000808040020C4
:100100000648804706480047FEE7FEE7FEE7FEE7B1
:10011000FEE7FEE7FEE7FEE7FEE7FEE72D04000848
:10012000ED000008064C074D06E0E06840F00103D2
:1001300094E8070098471034AC42F6D3FFF7DAFF93
:1001400088040008A80400084FF0E020006920F0AF
:1001500004004FF0E02108610920074908700846B3
:10016000007800EB4001C1EBC0104FF6FF7101EACF
:10017000C0000249088070470000002002000020F3
:1001800070470020704700000E480F4948600F4834
:10019000086031200E49086000BF0B48006800F479
:1001A00000300028F9D000BF0748006800F0007058
:1001B0000028F9D000BF0448406800F0080000287B
:1001C000F9D0704792005100001002400000010178
:1001D000002002402DE9F04304460D461646DDE9B5
:1001E000077C002240F2B270844203DB40F6330009
:1001F000844202DD0120BDE8F08340F2B27123E0C9
:100200004FEAE17801EB98784FEAA808A1EB88085B
:10021000B8F1000F14D14FF0640891FBF8F908FB16
:100220001918B8F1000F08D14FF4C87891FBF8F90C
:1002300008FB1918B8F1000F02D13C48024401E054
:100240003B480244481C81B2A142D9DB681EC5B2BA
:1002500000212AE03748405C40F2A32800FB08F068
:1002600002EBC0124FEAE47804EB98784FEAA80852
:10027000A4EB8808B8F1000F15D14FF0640894FB87
:10028000F8F908FB1948B8F1000F08D14FF4C87805
:1002900094FBF8F908FB1948B8F1000F03D10129C4
:1002A00001D125480244481C81B2A942D2DB701E0C
:1002B00040F2A32800FB08F002EBC012C3EB43108E
:1002C000C0EB032002EB0012C7EB071002EB800229
:1002D00062441A48006840F48070DFF86080C8F813
:1002E00000001748006840F01000DFF85480C8F89C
:1002F000000090B2DFF8488008F11808C8F8000044
:10030000100CA8F10408C8F800000D48006820F09F
:100310001000DFF82C80C8F8000000BF0848006813
:1003200000F020000028F9D0002064E70085E201F9
:100330008033E1017C04000880510100007000401E
:100340000428004000213648C06940F0C050344ABB
:10035000D0613448006840F48070324A1060304800
:10036000006A40F480302E4A10621046006A20F481
:10037000803010621046006A40F00100106201E017
:10038000481C01B22648006A00F0020018B947F67E
:10039000FF708142F4DB47F6FF70814201D10120FA
:1003A00070471F48006A40F401401D4A106200BFB8
:1003B0001D48006800F020000028F9D000BF1A484E
:1003C000006800F008000028F9D01748001F0068F6
:1003D00040F00100144A121F106000BF124800686C
:1003E00000F020000028F9D00F48006840F010000D
:1003F0000D4A10600020121D1060D013121D1060F5
:100400000948006820F01000074A106000BF064845
:10041000006800F020000028F9D00020C0E70000AC
:100420000010024000700040042800401CB5FFF797
:10043000ABFEFFF789FEFFF785FF00202D21162375
:100440000322CDE90010042140F2E270FFF7C2FE62
:10045000FFF797FE1CBD02E008C8121F08C1002A62
:10046000FAD170477047002001E001C1121F002A35
:10047000FBD1704701E0FFF783FEFCE71F1C1F1E46
:100480001F1E1F1F1E1F1E1FA804000800000020A3
:100490000400000056040008AC040008040000201A
:0C04A000040400006604000800000000D6
:04000005080000ED02
:00000001FF
