:020000042000DA
:10000000203400209D040020A5040020A704002027
:10001000A9040020AB040020AD0400200000000073
:10002000000000000000000000000000AF040020FD
:10003000B104002000000000B3040020B50400203B
:10004000B7040020B7040020B7040020B704002044
:10005000B7040020B7040020B7040020B704002034
:10006000B7040020B7040020B7040020B704002024
:10007000B7040020B7040020B7040020B704002014
:10008000B7040020B7040020B7040020B704002004
:10009000B7040020B7040020B7040020B7040020F4
:1000A000B7040020B7040020B7040020B7040020E4
:1000B000B7040020B7040020B7040020B7040020D4
:1000C000B7040020B7040020B7040020B7040020C4
:1000D000B7040020B7040020B7040020B7040020B4
:1000E000B7040020B7040020B7040020DFF80CD0CC
:1000F00000F0F4FA004800475502002020340020A8
:1001000010B56448806940F00D006249886162481A
:10011000406820F0E060604948600846406840F070
:10012000007048604FF022305C490860091D08608B
:100130005B4800686FF3130059490860084600687F
:1001400058490843564908604FF6FF7053490C312F
:100150000860C81452490C310860C01008604000A3
:1001600008604000086080000860142000F0DCF99E
:1001700010BD70B505460C464FF0006048490C3183
:100180000860C010086080130860012000F0D7F9F3
:1001900042480C300560012000F0D1F94FF00070AA
:1001A0003F490C3108600014086040100860086086
:1001B00080000860012000F0C2F938480C3004606B
:1001C000012000F0BCF94FF0007035490C31086097
:1001D000001408608000086070BD01464FF00062A6
:1001E0002F4B0C331A60D2141A6092001A602B4AFB
:1001F0000C3211605A051A6012141A6052101A60FB
:100200004FF08832254B1A601B1D1A601A15244BBB
:100210000C331A6012041A60204A0832126890B235
:10022000DA141A604FF022321C4B1A601B1D1A6040
:10023000704710B5142000F077F901210020FFF776
:1002400098FF142000F070F90020FFF7C6FF044665
:10025000204610BD08B50020009000F031F900F0F4
:100260009AF9642000F060F90FA000F069FA6420A8
:1002700000F05AF9FFF744FFFFF7DBFF009007E0BB
:10028000BDF800100CA000F05BFA642000F04CF9FF
:10029000F6E700000010024000000140000C0140A1
:1002A00004080140222202000A2073657269616C11
:1002B0002074657374200A0025780A000CB50020AC
:1002C000019000906C48006840F480306A490860F2
:1002D00000BF6948006800F4003000900198401C9D
:1002E0000190009818B90198B0F5A06FF1D162485B
:1002F000006800F4003010B10120009001E00020FF
:1003000000900098012843D15C48006840F010003C
:100310005A4908600846006820F003000860084653
:10032000006840F002000860534840685249486045
:100330000846406848600846406840F4806048606D
:100340000846406820F47C1048600846406840F445
:10035000E81048600846006840F08070086000BF00
:100360004548006800F000700028F9D04248406815
:1003700020F00300404948600846406840F0020011
:10038000486000BF3C48406800F00C000828F9D1E4
:100390000CBD10B5FFF792FF10BD10B536480068D0
:1003A00040F001003449086008464068344908407C
:1003B0003149486008460068324908402E490860C3
:1003C0000846006820F4802008600846406820F451
:1003D000FE0048604FF41F008860FFF7DAFF4FF01F
:1003E00000502949086010BD10B5002100200022EE
:1003F000214B5B6803F00C0121B1042906D00829C8
:1004000028D107E0214B224C236027E01F4B204CD2
:10041000236023E0184B5B6803F47010164B5B6895
:1004200003F48032022303EB904022B9194B43437B
:10043000174C23600DE0104B5B6803F4003323B1CD
:10044000144B4343124C236003E0104B4343104CC6
:10045000236003E00D4B0E4C236000BF00BF064B32
:100460005B68C3F303130C4CE15C094B1B68CB4086
:10047000074C236010BD0000001002400020024025
:100480000000FFF8FFFFF6FE08ED00E000127A0022
:100490000030002000093D0004300020064880475D
:1004A00006480047FEE7FEE7FEE7FEE7FEE7FEE759
:1004B000FEE7FEE7FEE7FEE79B030020ED000020DD
:1004C0004FF0E020006920F004004FF0E0210861C7
:1004D00026480068C0082649B0FBF1F0254908709D
:1004E0000846007800EB4001C1EBC0104FF6FF71E9
:1004F00001EAC0002049088070471F49098841432C
:100500004FF0E0225161002191610121116100BF92
:100510004FF0E021096901F480310029F8D0002171
:100520004FF0E0221161704700B5034603EB8301F1
:100530004FF6FF7202EA4100FFF7DFFF00BD0D49F1
:10054000097841434FF0E02251610021916101217E
:10055000116100BF4FF0E021096901F480310029E9
:10056000F8D000214FF0E0221161704700300020E8
:1005700040420F00143000201630002000BF394ADE
:10058000128802F08002002AF9D0C0F30802354B2D
:100590001B1D1A80704710B53349896944F2050262
:1005A0001143314A91613149496821F004012F4AD0
:1005B00051602F49096821F47F612D4A116011466D
:1005C000096841F0200111601146096841F4006199
:1005D00011602849096801EBC10202EB01114FF4D7
:1005E0001642B1FBF2F16422B1FBF2F22149096833
:1005F00001EBC10303EB01114FF41643B1FBF3F11F
:100600001C4B1B6803EBC30404EB03134FF41644A9
:10061000B3FBF4F36424B3FBF4F303EBC30404EB84
:100620000313A1EB8301322303EB01116423B1FB1C
:10063000F3F162F31F110B4A083211800021121DE1
:100640001180121D1180121D1180002001E000BFD9
:10065000401CB0F5805FFADB42F20C01014A0C321B
:10066000118010BD00380140001002400000014020
:1006700004080140003000202DE9F05F054600200D
:1006800092469B4688460646814640241BE0284603
:1006900041464746224600F042F853465A46C01AA1
:1006A000914110D311461846224600F029F82D1A20
:1006B00067EB01084F4622460120002100F020F898
:1006C00017EB00094E41201EA4F10104DFDC48466F
:1006D00031462A464346BDE8F09F0000064C074DD0
:1006E00006E0E06840F0010394E807009847103402
:1006F000AC42F6D3FFF7FEFC3C0A00205C0A002067
:10070000202A04DB203A00FA02F1002070479140D1
:10071000C2F1200320FA03F3194390407047202AC6
:1007200004DB203A21FA02F00021704721FA02F39B
:10073000D040C2F1200291400843194670470000A2
:100740000FB4054B10B503A9044A029800F018F83D
:1007500010BC5DF814FB00007D050020183000205F
:1007600002E008C8121F08C1002AFAD1704770477A
:10077000002001E001C1121F002AFBD170470000D8
:100780002DE9FF4F8DB09B460F460446002606E03C
:1007900025280BD05A460F999047641C761C207868
:1007A0000028F5D111B03046BDE8F08F0025A846ED
:1007B0000122974900E0054314F8013F203B02FA6B
:1007C00003F00842F7D120782E2817D114F8010F32
:1007D00045F004052A280ED06FF02F022078A0F1F2
:1007E000300109290AD808EB880102EB410100EB2E
:1007F0000108641CF2E757F8048B641C20786C280D
:100800000DD004DC4C2812D06A2811D104E07428E1
:100810000DD07A280CD10AE045F4001507E0617884
:1008200045F48015814202D1641C05F58015641CD5
:100830002278692A45D008DC002AB3D0582A67D02C
:10084000632A10D0642A08D13BE0702A65D0732A4D
:1008500013D0752A5AD0782A5AD010465A460F9982
:100860009047761CD1E017F8040B8DF800000020AB
:100870008DF80100E946012003E057F8049B4FF092
:10088000FF3069074FF0000501D40AE06D1C4545B3
:100890000DDA8542FADB19F805100029F6D106E0D9
:1008A0006D1C8542FCDB19F805100029F8D12E4497
:1008B00004E019F8010B5A460F9990476D1EF8D2C3
:1008C000A3E00A200021CDE90801C5F30250022867
:1008D0000BD001CFC11700290DDA4FF0000CD0EB7F
:1008E0000C006CEB01012D2308E0FF1D27F007072A
:1008F000F7E80201EFE72B0504D52B238DF828300C
:1009000001233BE0EB0739D02023F7E70A2000E082
:1009100010200021CDE9080107E01020002145F05A
:100920000405CDE908014FF00808C5F3025002287C
:100930000FD001CF00214FF0000A2B071FD5702ADE
:100940000DD0DDE908C38CF0100C5CEA030C0CD070
:1009500015E0FF1D27F00707F7E80201EBE740224B
:100960008DF828204FF0010A0BE050EA010306D071
:1009700030238DF828308DF8292002239A46582AF2
:1009800004D024A20DF120090B9209E026A2F9E778
:10099000DDE90823FFF770FE0B9B9B5C09F8013D26
:1009A00050EA0102F4D1ADEB09002030089068074D
:1009B00001D44FF001080899884502DDA8EB010039
:1009C00000E000208046002506E00AA85A46405D67
:1009D0000F9990476D1C761C5545F6DB04E03020DE
:1009E0005A460F999047761CB8F10001A8F101080A
:1009F000F5DC05E019F8010B5A460F999047761C73
:100A00000899481E08900029F4DC641CC7E6000021
:100A100009280100303132333435363738396162D4
:100A20006364656600000000303132333435363798
:100A30003839414243444546000000005C0A00202A
:100A4000003000201C00000060070020780A002011
:100A50001C300020040400007007002000A24A049B
:100A6000000000000000000001020304060708095E
:080A700000000000000000007E
:04000005200000EDEA
:00000001FF
