:020000042000DA
:10000000203400206D0800207508002077080020AB
:10001000790800207B0800207D08002000000000F7
:100020000000000000000000000000007F08002029
:1000300081080020000000008308002085080020BF
:1000400087080020870800208708002087080020F4
:1000500087080020870800208708002087080020E4
:1000600087080020870800208708002087080020D4
:1000700087080020870800208708002087080020C4
:1000800087080020870800208708002087080020B4
:1000900087080020870800208708002087080020A4
:1000A0008708002087080020870800208708002094
:1000B0008708002087080020870800208708002084
:1000C0008708002087080020870800208708002074
:1000D0008708002087080020870800208708002064
:1000E000870800208708002087080020DFF80CD050
:1000F00000F0EAFC00480047010100202034002005
:1001000086B00025002700260F20009000F0C0FBDD
:1001100000F036FC2BA000F009FD00F00AF94FF4C6
:10012000FC6000F05DFA00F09EFA0090761CBDF8CD
:10013000002031462CA000F0F9FC642000F0DCFB2C
:1001400001240EE0204600F092F80090BDF8002057
:10015000214629A000F0EAFC012000F0CDFB601C44
:10016000C4B2F22CEEDD17A000F0E0FC29E0254837
:10017000008800F0200090B12248001D008801A9ED
:1001800021F815000A2D04D001A830F815000D281B
:1001900001D1012000E000200746681CC5B267B10C
:1001A000002406E001A911F8140000F0DCFB601C3B
:1001B000C4B2AC42F6DB002500274FF4784000F0D3
:1001C0000FFAD4E70A2D2D2D2D2D2D2D2D2D2D2D72
:1001D0002D2D2D2D2D2D2D2D2D2D2D2D2D2D2D2D4F
:1001E0002D2D2D2D2D2D0A004E3A252D3464202045
:1001F0002523780A0000000052252D347820202580
:1002000023780A0000380140FE48806920F0080089
:10021000FC4988614FF04430FB490860091D0860C3
:100220000120FA49087070474FF02232F64B1A60ED
:100230001B1D1A604FF48032F54B1A6052011A6090
:1002400080221A60F04A0C3210604FF480021A606B
:1002500040221A6020221A60EB4A0C3211604FF4DF
:1002600080021A6040221A6001221A60704701461B
:100270004FF02232E44B1A601B1D1A604FF480329B
:10028000E34B1A6052011A6080221A60DE4A0C3277
:1002900011604FF480021A6040221A6020221A6016
:1002A0004FF08832D84B1A601B1D1A608022D84B41
:1002B0001A6012041A60D44A0832126890B20122FD
:1002C0001A607047CF48806940F00D00CD498861C1
:1002D000D048406820F0E060CE4948600846406859
:1002E00040F0007048604FF02230C7490860091D97
:1002F0000860C74810380068C7490840C449103929
:10030000086008460068C5490843C14910390860BB
:100310004FF6FF70BC490C3108600120BC490860F1
:1003200020200860402008608020086002200860CB
:10033000704710B50020B5490870FFF7C3FF0220D1
:10034000B3490860012000F0D7FA4FF40030B049FB
:100350000860012000F0D0FA0220AD4908600520B5
:1003600000F0CAFA01210020FFF75EFF052000F02F
:10037000C3FA0020FFF77BFFA949088041F214016E
:10038000E720FFF751FF4FF480710120FFF74CFF8A
:100390004FF400710220FFF747FF41F230010320C4
:1003A000FFF742FF40F202210820FFF73DFF002146
:1003B0000920FFF739FF08210A20FFF735FF40F237
:1003C00001110C20FFF730FF00210D20FFF72CFF5B
:1003D00000210F20FFF728FF00211020FFF724FF46
:1003E00007211120FFF720FF00211220FFF71CFF3B
:1003F00000211320FFF718FF142000F07DFA41F2CE
:1004000090611020FFF710FF40F227211120FFF725
:100410000BFF052000F070FA0C211220FFF704FFFB
:10042000052000F069FA4FF400611320FFF7FCFE8D
:1004300011212920FFF7F8FE0B212B20FFF7F4FEF6
:10044000052000F059FA00212020FFF7EDFE0021E1
:100450002120FFF7E9FE00213020FFF7E5FE4FF4F1
:1004600083713120FFF7E0FE00213220FFF7DCFE30
:100470004FF401713520FFF7D7FE41F20A613620B3
:10048000FFF7D2FE40F207713720FFF7CDFE4FF4A1
:1004900083713820FFF7C8FE40F207713920FFF75B
:1004A000C3FE40F202413C20FFF7BEFE40F60F4182
:1004B0003D20FFF7B9FE00215020FFF7B5FEEF21E8
:1004C0005120FFF7B1FE00215220FFF7ADFE40F2B0
:1004D0003F115320FFF7A8FE4FF427416020FFF79C
:1004E000A3FE01216120FFF79FFE00216A20FFF794
:1004F0009BFE00218020FFF797FE00218120FFF75F
:1005000093FE00218220FFF78FFE00218320FFF75A
:100510008BFE00218420FFF787FE00218520FFF756
:1005200083FE10219020FFF77FFE4FF4C0619220E0
:10053000FFF77AFE03219320FFF776FE4FF48871D0
:100540009520FFF771FE00219720FFF76DFE002137
:100550009820FFF769FE41F218010320FFF764FEBF
:1005600000210720FFF760FE052000F0C5F940F2EA
:1005700023110720FFF758FE052000F0BDF90021E8
:100580002020FFF751FE00212120FFF74DFE10BD76
:1005900030B504460D4629462020FFF745FE21468A
:1005A0002120FFF741FE30BD17490C3108604FF4A0
:1005B0008001174A116040211160704720201449C2
:1005C00008608020086022200F490C3108604FF439
:1005D00080000F49086040200860202008607047B4
:1005E00030B5054600210846FFF7D2FF4FF0223014
:1005F00005490860091D08604FF48030044908600F
:1006000010E0000000100240000C0140003000200B
:10061000100801400000014000FF0F0022002022CE
:1006200002300020FFF7CAFF002403E02846FFF74E
:10063000BBFF641CB4F5963FF8D301201149086054
:1006400030BD7047704708B580200E49086000042F
:1006500008600D48006880B20090BDF8000008BD39
:1006600070477047704710B501210020FFF7DCFD8F
:10067000052000F041F90020FFF7F9FD044620466F
:1006800010BD000010080140080C01400CB500200E
:10069000019000906C48006840F480306A4908601E
:1006A00000BF6948006800F4003000900198401CC9
:1006B0000190009818B90198B0F5A06FF1D1624887
:1006C000006800F4003010B10120009001E000202B
:1006D00000900098012843D15C48006840F0100069
:1006E0005A4908600846006820F003000860084680
:1006F000006840F002000860534840685249486072
:100700000846406848600846406840F48060486099
:100710000846406820F47C1048600846406840F471
:10072000E81048600846006840F08070086000BF2C
:100730004548006800F000700028F9D04248406841
:1007400020F00300404948600846406840F002003D
:10075000486000BF3C48406800F00C000828F9D110
:100760000CBD10B5FFF792FF10BD10B536480068FC
:1007700040F00100344908600846406834490840A8
:100780003149486008460068324908402E490860EF
:100790000846006820F4802008600846406820F47D
:1007A000FE0048604FF41F008860FFF7DAFF4FF04B
:1007B00000502949086010BD10B50021002000221A
:1007C000214B5B6803F00C0121B1042906D00829F4
:1007D00028D107E0214B224C236027E01F4B204CFF
:1007E000236023E0184B5B6803F47010164B5B68C2
:1007F00003F48032022303EB904022B9194B4343A8
:10080000174C23600DE0104B5B6803F4003323B1F9
:10081000144B4343124C236003E0104B4343104CF2
:10082000236003E00D4B0E4C236000BF00BF064B5E
:100830005B68C3F303130C4CE15C094B1B68CB40B2
:10084000074C236010BD0000001002400020024051
:100850000000FFF8FFFFF6FE08ED00E000127A004E
:100860000430002000093D00083000200648804781
:1008700006480047FEE7FEE7FEE7FEE7FEE7FEE785
:10088000FEE7FEE7FEE7FEE76B070020ED00002035
:100890004FF0E020006920F004004FF0E0210861F3
:1008A00026480068C0082649B0FBF1F025490870C9
:1008B0000846007800EB4001C1EBC0104FF6FF7115
:1008C00001EAC0002049088070471F490988414358
:1008D0004FF0E0225161002191610121116100BFBF
:1008E0004FF0E021096901F480310029F8D000219E
:1008F0004FF0E0221161704700B5034603EB83011E
:100900004FF6FF7202EA4100FFF7DFFF00BD0D491D
:10091000097841434FF0E0225161002191610121AA
:10092000116100BF4FF0E021096901F48031002915
:10093000F8D000214FF0E022116170470430002010
:1009400040420F00183000201A30002000BF404AFB
:10095000128802F08002002AF9D0C0F308023C4B52
:100960001B1D1A80704700BF3949098801F08001BA
:100970000029F9D0C0F30801354A121D11807047D3
:1009800010B53449896944F205021143314A916135
:100990003149496821F004012F4A51602F49096803
:1009A00021F47F612D4A11601146096841F0A001D0
:1009B00011601146096841F4006111602849096815
:1009C00001EBC10202EB01114FF41642B1FBF2F14F
:1009D0006422B1FBF2F22249096801EBC10303EB87
:1009E00001114FF41643B1FBF3F11D4B1B6803EBF0
:1009F000C30404EB03134FF41644B3FBF4F3642471
:100A0000B3FBF4F303EBC30404EB0313A1EB830187
:100A1000322303EB01116423B1FBF3F162F31F11E5
:100A20000B4A083211800021121D1180121D118005
:100A3000121D1180002001E000BF401CB0F5805F56
:100A4000FADB42F20C01024A0C32118010BD0000A8
:100A5000003801400010024000000140040801403D
:100A6000043000202DE9F05F0546002092469B46A9
:100A700088460646814640241BE0284641464746B4
:100A8000224600F042F853465A46C01A914110D30C
:100A900011461846224600F029F82D1A67EB010886
:100AA0004F4622460120002100F020F817EB0009F4
:100AB0004E41201EA4F10104DFDC484631462A469F
:100AC0004346BDE8F09F0000064C074D06E0E06895
:100AD00040F0010394E8070098471034AC42F6D385
:100AE000FFF708FBC80F0020E80F0020202A04DBD6
:100AF000203A00FA02F1002070479140C2F1200331
:100B000020FA03F3194390407047202A04DB203A6F
:100B100021FA02F00021704721FA02F3D040C2F11D
:100B20002002914008431946704700000FB4054B5E
:100B300010B503A9044A029800F018F810BC5DF83B
:100B400014FB00004D0900201C30002002E008C802
:100B5000121F08C1002AFAD170477047002001E037
:100B600001C1121F002AFBD1704700002DE9FF4F81
:100B70008DB00F460546002606E025280BD0DDE99E
:100B80000F1290476D1C761C28780028F5D111B003
:100B90003046BDE8F08F0024A246A1460122EA4972
:100BA00000E0044315F8013F203B02FA03F008423D
:100BB000F7D128782A2810D06FF02F022878A0F1DA
:100BC0003001092914D80AEB8A0102EB410144F0F3
:100BD000020400EB010A6D1CF0E701CF5FEA000A96
:100BE00003D544F40054CAF1000A44F002046D1C19
:100BF00028782E2817D115F8010F44F004042A286C
:100C00000ED06FF02F022878A0F1300109290AD800
:100C100009EB890102EB410100EB01096D1CF2E7D0
:100C200057F8049B6D1C28786C280FD006DC4C28E4
:100C300017D068280DD06A2814D104E0742810D089
:100C40007A280FD10DE044F400140AE044F4801433
:100C500001E044F440146978814202D104F5801423
:100C60006D1C6D1C2A786E2A1FD00CDC632A31D0D3
:100C700004DC002A8BD0582A11D19FE0642A68D066
:100C8000692A0CD165E0732A2ED004DC6F2A73D058
:100C9000702A04D197E0752A6FD0782A6ED010465A
:100CA000DDE90F129047761C4CE1C4F30250022894
:100CB00006D0032809D0042801CF09D0066041E1FD
:100CC00001CFF117C0E900613CE101CF068039E1B5
:100CD000067037E117F8040B8DF8000000208DF83E
:100CE0000100EB46012003E057F804BB4FF0FF3052
:100CF00061074FF0000102D40DE008F101018846C0
:100D000049450FDA8045F8DB1BF808100029F4D1BB
:100D100008E008F1010188468142FADB1BF808105F
:100D20000029F6D1DDE90F23AAEB08008146214610
:100D300000F032F9304400EB080604E0DDE90F1260
:100D40001BF8010B9047B8F10108F7D2214648463D
:100D5000F3E00A21C4F302534FF0000B0891022B79
:100D600004D001CFC117032B09D00AE0FF1D27F0E3
:100D70000707F7E8020108E02EE01DE01EE000B2E0
:100D8000C117042B01D140B2C117002907DA4FF077
:100D9000000CD0EB0C006CEB01012D2302E02305CD
:100DA00004D52B238DF82430012303E0E30701D081
:100DB0002023F7E7984656E00A210EE010204FF076
:100DC000000B08900CE010214FF0000B44F00404DD
:100DD0004FF00809089103E008214FF0000B08913B
:100DE000C4F30253022B04D001CF0021032B06D001
:100DF00006E0FF1D27F00707F7E8020103E080B2D5
:100E0000042B00D1C0B24FF0000823072BD5702A65
:100E100007D0DDF820C08CF0100C5CEA0B0C05D07C
:100E20000EE040238DF82430012308E050EA01034E
:100E300006D030238DF824308DF8252002239846E3
:100E4000DDF820C08CF0080C5CEA0B0C0BD150EAEA
:100E5000010301D1630706D530238DF824304FF00C
:100E60000108A9F10109582A04D038A20B9208AA56
:100E70000A920BE03AA2F9E75B46089AFFF7F2FD07
:100E80000B9B9B5C0A9A521E0A92137050EA010255
:100E9000F2D10A98ADEB000000F1200B600702D5FB
:100EA00024F4803401E04FF00109D94502DDA9EBBB
:100EB0000B0000E0002000EB0B0141440890AAEB7E
:100EC000010AE00306D4DDE90F232146504600F075
:100ED00063F806444FF0000908E009A911F8090079
:100EE000DDE90F12904709F10109761CC145F4DBD9
:100EF000E0030CD5DDE90F232146504600F04CF805
:100F0000064404E0DDE90F1230209047761C089972
:100F1000481E08900029F5DC08E00A980A99007834
:100F2000491C0A91DDE90F129047761CBBF10001C4
:100F3000ABF1010BF1DC21465046DDE90F2300F057
:100F400019F806446D1C1FE60928010030313233C0
:100F500034353637383961626364656600000000F5
:100F600030313233343536373839414243444546DF
:100F7000000000002DE9F041044600251E461746FA
:100F8000880404D405E039462020B0476D1C641E57
:100F9000F9D52846BDE8F0812DE9F0410446002549
:100FA0001E469046C80301D5302700E0202788045C
:100FB00004D505E041463846B0476D1C641EF9D59E
:100FC0002846BDE8F0810000E80F00200030002036
:100FD000200000004C0B00200810002020300020D2
:100FE000000400005C0B00200100000000A24A0485
:100FF00000000000000000000102030406070809C9
:081000000000000000000000E8
:04000005200000EDEA
:00000001FF
