:020000042000DA
:1000000020340020D9050020E1050020E305002070
:10001000E5050020E7050020E905002000000000BC
:10002000000000000000000000000000EB050020C0
:10003000ED05002000000000EF050020F105002084
:10004000F3050020F3050020F3050020F305002050
:10005000F3050020F3050020F3050020F305002040
:10006000F3050020F3050020F3050020F305002030
:10007000F3050020F3050020F3050020F305002020
:10008000F3050020F3050020F3050020F305002010
:10009000F3050020F3050020F3050020F305002000
:1000A000F3050020F3050020F3050020F3050020F0
:1000B000F3050020F3050020F3050020F3050020E0
:1000C000F3050020F3050020F3050020F3050020D0
:1000D000F3050020F3050020F3050020F3050020C0
:1000E000F3050020F3050020F3050020DFF80CD015
:1000F00000F084FA004800472F030020203400203D
:100100004FF0E020006920F004004FF0E02108618A
:1001100026480068C0082649B0FBF1F02549087060
:100120000846007800EB4001C1EBC0104FF6FF71AC
:1001300001EAC0002049088070471F4909884143EF
:100140004FF0E0225161002191610121116100BF56
:100150004FF0E021096901F480310029F8D0002135
:100160004FF0E0221161704700B5034603EB8301B5
:100170004FF6FF7202EA4100FFF7DFFF00BD0D49B5
:10018000097841434FF0E022516100219161012142
:10019000116100BF4FF0E021096901F480310029AD
:1001A000F8D000214FF0E0221161704708300020A4
:1001B00040420F00003000200230002000BF784A8B
:1001C000128802F08002002AF9D0C0F30802744BB2
:1001D0001B1D1A8070477348806940F009007149FF
:1001E00088610020704908607048406820F0E06035
:1001F0006E4948600846406840F0007048604FF023
:10020000223069490C390860091D0860704710B533
:1002100000243220FFF7A8FF00206349086000BFD8
:1002200011E04FF6FF706049091D08601420FFF7C8
:100230009BFF4FF6FF705C49083108601420FFF700
:1002400093FF601CC4B20A2CEBDB10BD10B5052077
:10025000FFF78AFF5648008840005549098840EA60
:10026000E13053490880084600884F49086010BDB6
:100270004C48806944F2050108434A4988614B486B
:10028000406820F00400494948604A48006820F46A
:100290007F60484908600846006840F0A000086098
:1002A0000846006840F4006008604348006800EBBE
:1002B000C00101EB00104FF41641B0FBF1F06421D6
:1002C000B0FBF1F13C48006800EBC00202EB00100B
:1002D0004FF41642B0FBF2F0374A126802EBC20349
:1002E00003EB02124FF41643B2FBF3F26423B2FBAA
:1002F000F3F202EBC20303EB0212A0EB8200322204
:1003000002EB00106422B0FBF2F061F31F102449ED
:10031000083108800020091D0880091D0880091D7A
:10032000088042F20C001E490C310880704761249D
:10033000FFF7E6FEFFF74FFFFFF79AFF0BE000BF66
:100340001748008800F080000028F9D01448001DEC
:100350000480601CC4B27A2CF1DDFFF758FF17A0AF
:1003600000F05EF917A000F05BF9612416E0FFF7DA
:100370006DFF1420FFF7F8FE00BF0948008800F069
:1003800080000028F9D00648001D0480601CC4B21B
:100390007A2C03DD612417A000F042F9E7E70000A2
:1003A00000380140001002400C0C014000000140E8
:1003B0000430002004080140083000200A746573EE
:1003C00074210A0055534152543120E4BDBFE883E3
:1003D000BD2C20E4BDBFE883BDE8BE93E587BAEF3E
:1003E000BC8CE4BDBFE883BDE8BE93E585A55C6E2B
:1003F000000000000A0000000CB5002001900090F1
:100400006C48006840F480306A49086000BF694861
:10041000006800F4003000900198401C01900098A2
:1004200018B90198B0F5A06FF1D16248006800F4E6
:10043000003010B10120009001E0002000900098F1
:10044000012843D15C48006840F010005A49086018
:100450000846006820F0030008600846006840F085
:1004600002000860534840685249486008464068A6
:1004700048600846406840F480604860084640682C
:1004800020F47C1048600846406840F4E81048605A
:100490000846006840F08070086000BF454800686A
:1004A00000F000700028F9D04248406820F00300B6
:1004B000404948600846406840F00200486000BF7C
:1004C0003C48406800F00C000828F9D10CBD10B57C
:1004D000FFF792FF10BD10B53648006840F00100EC
:1004E000344908600846406834490840314948604A
:1004F00008460068324908402E49086008460068EE
:1005000020F4802008600846406820F4FE0048601F
:100510004FF41F008860FFF7DAFF4FF000502949C1
:10052000086010BD10B5002100200022214B5B683F
:1005300003F00C0121B1042906D0082928D107E0D5
:10054000214B224C236027E01F4B204C236023E0EB
:10055000184B5B6803F47010164B5B6803F4803231
:10056000022303EB904022B9194B4343174C2360FD
:100570000DE0104B5B6803F4003323B1144B43438D
:10058000124C236003E0104B4343104C236003E004
:100590000D4B0E4C236000BF00BF064B5B68C3F3DE
:1005A00003130C4CE15C094B1B68CB40074C2360E8
:1005B00010BD000000100240002002400000FFF8C3
:1005C000FFFFF6FE08ED00E000127A000830002080
:1005D00000093D000C3000200648804706480047CF
:1005E000FEE7FEE7FEE7FEE7FEE7FEE7FEE7FEE7E3
:1005F000FEE7FEE7D7040020ED000020064C074D83
:1006000006E0E06840F0010394E8070098471034E2
:10061000AC42F6D3FFF76EFD700600209006002076
:10062000014A024900F013B8BD0100201C3000202F
:1006300002E008C8121F08C1002AFAD170477047AB
:10064000002001E001C1121F002AFBD170472DE9F3
:10065000F04116460F460446002503E03946B047F0
:10066000641C6D1C20780028F8D12846BDE8F08174
:1006700090060020003000202000000030060020FE
:10068000B0060020203000200004000040060020BA
:1006900000000000000F000000A24A04000000005B
:1006A0000000000001020304060708090000000022
:04000005200000EDEA
:00000001FF
